{
	"contracts/SimpleDEX.sol": {
		"SimpleDEX": {
			"abi": [
				{
					"inputs": [
						{
							"internalType": "address",
							"name": "_tokenA",
							"type": "address"
						},
						{
							"internalType": "address",
							"name": "_tokenB",
							"type": "address"
						},
						{
							"internalType": "uint256",
							"name": "_exchangeRate",
							"type": "uint256"
						}
					],
					"stateMutability": "nonpayable",
					"type": "constructor"
				},
				{
					"inputs": [
						{
							"internalType": "address",
							"name": "account",
							"type": "address"
						}
					],
					"name": "balanceOfTokenA",
					"outputs": [
						{
							"internalType": "uint256",
							"name": "",
							"type": "uint256"
						}
					],
					"stateMutability": "view",
					"type": "function"
				},
				{
					"inputs": [
						{
							"internalType": "address",
							"name": "account",
							"type": "address"
						}
					],
					"name": "balanceOfTokenB",
					"outputs": [
						{
							"internalType": "uint256",
							"name": "",
							"type": "uint256"
						}
					],
					"stateMutability": "view",
					"type": "function"
				},
				{
					"inputs": [],
					"name": "exchangeRate",
					"outputs": [
						{
							"internalType": "uint256",
							"name": "",
							"type": "uint256"
						}
					],
					"stateMutability": "view",
					"type": "function"
				},
				{
					"inputs": [
						{
							"internalType": "uint256",
							"name": "amountA",
							"type": "uint256"
						}
					],
					"name": "exchangeTokenAForTokenB",
					"outputs": [],
					"stateMutability": "nonpayable",
					"type": "function"
				},
				{
					"inputs": [
						{
							"internalType": "uint256",
							"name": "amountB",
							"type": "uint256"
						}
					],
					"name": "exchangeTokenBForTokenA",
					"outputs": [],
					"stateMutability": "nonpayable",
					"type": "function"
				},
				{
					"inputs": [],
					"name": "owner",
					"outputs": [
						{
							"internalType": "address",
							"name": "",
							"type": "address"
						}
					],
					"stateMutability": "view",
					"type": "function"
				},
				{
					"inputs": [
						{
							"internalType": "uint256",
							"name": "_newRate",
							"type": "uint256"
						}
					],
					"name": "setExchangeRate",
					"outputs": [],
					"stateMutability": "nonpayable",
					"type": "function"
				},
				{
					"inputs": [],
					"name": "tokenA",
					"outputs": [
						{
							"internalType": "contract IERC20",
							"name": "",
							"type": "address"
						}
					],
					"stateMutability": "view",
					"type": "function"
				},
				{
					"inputs": [],
					"name": "tokenB",
					"outputs": [
						{
							"internalType": "contract IERC20",
							"name": "",
							"type": "address"
						}
					],
					"stateMutability": "view",
					"type": "function"
				}
			],
			"devdoc": {
				"kind": "dev",
				"methods": {},
				"version": 1
			},
			"evm": {
				"assembly": "    /* \"contracts/SimpleDEX.sol\":558:3123  contract SimpleDEX {... */\n  mstore(0x40, 0x80)\n    /* \"contracts/SimpleDEX.sol\":823:1035  constructor(address _tokenA, address _tokenB, uint _exchangeRate) {... */\n  callvalue\n  dup1\n  iszero\n  tag_1\n  jumpi\n  0x00\n  dup1\n  revert\ntag_1:\n  pop\n  mload(0x40)\n  sub(codesize, bytecodeSize)\n  dup1\n  bytecodeSize\n  dup4\n  codecopy\n  dup2\n  dup2\n  add\n  0x40\n  mstore\n  dup2\n  add\n  swap1\n  tag_2\n  swap2\n  swap1\n  tag_3\n  jump\t// in\ntag_2:\n    /* \"contracts/SimpleDEX.sol\":908:918  msg.sender */\n  caller\n    /* \"contracts/SimpleDEX.sol\":900:905  owner */\n  0x00\n  dup1\n    /* \"contracts/SimpleDEX.sol\":900:918  owner = msg.sender */\n  0x0100\n  exp\n  dup2\n  sload\n  dup2\n  0xffffffffffffffffffffffffffffffffffffffff\n  mul\n  not\n  and\n  swap1\n  dup4\n  0xffffffffffffffffffffffffffffffffffffffff\n  and\n  mul\n  or\n  swap1\n  sstore\n  pop\n    /* \"contracts/SimpleDEX.sol\":945:952  _tokenA */\n  dup3\n    /* \"contracts/SimpleDEX.sol\":929:935  tokenA */\n  0x01\n  0x00\n    /* \"contracts/SimpleDEX.sol\":929:953  tokenA = IERC20(_tokenA) */\n  0x0100\n  exp\n  dup2\n  sload\n  dup2\n  0xffffffffffffffffffffffffffffffffffffffff\n  mul\n  not\n  and\n  swap1\n  dup4\n  0xffffffffffffffffffffffffffffffffffffffff\n  and\n  mul\n  or\n  swap1\n  sstore\n  pop\n    /* \"contracts/SimpleDEX.sol\":980:987  _tokenB */\n  dup2\n    /* \"contracts/SimpleDEX.sol\":964:970  tokenB */\n  0x02\n  0x00\n    /* \"contracts/SimpleDEX.sol\":964:988  tokenB = IERC20(_tokenB) */\n  0x0100\n  exp\n  dup2\n  sload\n  dup2\n  0xffffffffffffffffffffffffffffffffffffffff\n  mul\n  not\n  and\n  swap1\n  dup4\n  0xffffffffffffffffffffffffffffffffffffffff\n  and\n  mul\n  or\n  swap1\n  sstore\n  pop\n    /* \"contracts/SimpleDEX.sol\":1014:1027  _exchangeRate */\n  dup1\n    /* \"contracts/SimpleDEX.sol\":999:1011  exchangeRate */\n  0x03\n    /* \"contracts/SimpleDEX.sol\":999:1027  exchangeRate = _exchangeRate */\n  dup2\n  swap1\n  sstore\n  pop\n    /* \"contracts/SimpleDEX.sol\":823:1035  constructor(address _tokenA, address _tokenB, uint _exchangeRate) {... */\n  pop\n  pop\n  pop\n    /* \"contracts/SimpleDEX.sol\":558:3123  contract SimpleDEX {... */\n  jump(tag_6)\n    /* \"#utility.yul\":88:205   */\ntag_8:\n    /* \"#utility.yul\":197:198   */\n  0x00\n    /* \"#utility.yul\":194:195   */\n  dup1\n    /* \"#utility.yul\":187:199   */\n  revert\n    /* \"#utility.yul\":334:460   */\ntag_10:\n    /* \"#utility.yul\":371:378   */\n  0x00\n    /* \"#utility.yul\":411:453   */\n  0xffffffffffffffffffffffffffffffffffffffff\n    /* \"#utility.yul\":404:409   */\n  dup3\n    /* \"#utility.yul\":400:454   */\n  and\n    /* \"#utility.yul\":389:454   */\n  swap1\n  pop\n    /* \"#utility.yul\":334:460   */\n  swap2\n  swap1\n  pop\n  jump\t// out\n    /* \"#utility.yul\":466:562   */\ntag_11:\n    /* \"#utility.yul\":503:510   */\n  0x00\n    /* \"#utility.yul\":532:556   */\n  tag_23\n    /* \"#utility.yul\":550:555   */\n  dup3\n    /* \"#utility.yul\":532:556   */\n  tag_10\n  jump\t// in\ntag_23:\n    /* \"#utility.yul\":521:556   */\n  swap1\n  pop\n    /* \"#utility.yul\":466:562   */\n  swap2\n  swap1\n  pop\n  jump\t// out\n    /* \"#utility.yul\":568:690   */\ntag_12:\n    /* \"#utility.yul\":641:665   */\n  tag_25\n    /* \"#utility.yul\":659:664   */\n  dup2\n    /* \"#utility.yul\":641:665   */\n  tag_11\n  jump\t// in\ntag_25:\n    /* \"#utility.yul\":634:639   */\n  dup2\n    /* \"#utility.yul\":631:666   */\n  eq\n    /* \"#utility.yul\":621:684   */\n  tag_26\n  jumpi\n    /* \"#utility.yul\":680:681   */\n  0x00\n    /* \"#utility.yul\":677:678   */\n  dup1\n    /* \"#utility.yul\":670:682   */\n  revert\n    /* \"#utility.yul\":621:684   */\ntag_26:\n    /* \"#utility.yul\":568:690   */\n  pop\n  jump\t// out\n    /* \"#utility.yul\":696:839   */\ntag_13:\n    /* \"#utility.yul\":753:758   */\n  0x00\n    /* \"#utility.yul\":784:790   */\n  dup2\n    /* \"#utility.yul\":778:791   */\n  mload\n    /* \"#utility.yul\":769:791   */\n  swap1\n  pop\n    /* \"#utility.yul\":800:833   */\n  tag_28\n    /* \"#utility.yul\":827:832   */\n  dup2\n    /* \"#utility.yul\":800:833   */\n  tag_12\n  jump\t// in\ntag_28:\n    /* \"#utility.yul\":696:839   */\n  swap3\n  swap2\n  pop\n  pop\n  jump\t// out\n    /* \"#utility.yul\":845:922   */\ntag_14:\n    /* \"#utility.yul\":882:889   */\n  0x00\n    /* \"#utility.yul\":911:916   */\n  dup2\n    /* \"#utility.yul\":900:916   */\n  swap1\n  pop\n    /* \"#utility.yul\":845:922   */\n  swap2\n  swap1\n  pop\n  jump\t// out\n    /* \"#utility.yul\":928:1050   */\ntag_15:\n    /* \"#utility.yul\":1001:1025   */\n  tag_31\n    /* \"#utility.yul\":1019:1024   */\n  dup2\n    /* \"#utility.yul\":1001:1025   */\n  tag_14\n  jump\t// in\ntag_31:\n    /* \"#utility.yul\":994:999   */\n  dup2\n    /* \"#utility.yul\":991:1026   */\n  eq\n    /* \"#utility.yul\":981:1044   */\n  tag_32\n  jumpi\n    /* \"#utility.yul\":1040:1041   */\n  0x00\n    /* \"#utility.yul\":1037:1038   */\n  dup1\n    /* \"#utility.yul\":1030:1042   */\n  revert\n    /* \"#utility.yul\":981:1044   */\ntag_32:\n    /* \"#utility.yul\":928:1050   */\n  pop\n  jump\t// out\n    /* \"#utility.yul\":1056:1199   */\ntag_16:\n    /* \"#utility.yul\":1113:1118   */\n  0x00\n    /* \"#utility.yul\":1144:1150   */\n  dup2\n    /* \"#utility.yul\":1138:1151   */\n  mload\n    /* \"#utility.yul\":1129:1151   */\n  swap1\n  pop\n    /* \"#utility.yul\":1160:1193   */\n  tag_34\n    /* \"#utility.yul\":1187:1192   */\n  dup2\n    /* \"#utility.yul\":1160:1193   */\n  tag_15\n  jump\t// in\ntag_34:\n    /* \"#utility.yul\":1056:1199   */\n  swap3\n  swap2\n  pop\n  pop\n  jump\t// out\n    /* \"#utility.yul\":1205:1868   */\ntag_3:\n    /* \"#utility.yul\":1293:1299   */\n  0x00\n    /* \"#utility.yul\":1301:1307   */\n  dup1\n    /* \"#utility.yul\":1309:1315   */\n  0x00\n    /* \"#utility.yul\":1358:1360   */\n  0x60\n    /* \"#utility.yul\":1346:1355   */\n  dup5\n    /* \"#utility.yul\":1337:1344   */\n  dup7\n    /* \"#utility.yul\":1333:1356   */\n  sub\n    /* \"#utility.yul\":1329:1361   */\n  slt\n    /* \"#utility.yul\":1326:1445   */\n  iszero\n  tag_36\n  jumpi\n    /* \"#utility.yul\":1364:1443   */\n  tag_37\n  tag_8\n  jump\t// in\ntag_37:\n    /* \"#utility.yul\":1326:1445   */\ntag_36:\n    /* \"#utility.yul\":1484:1485   */\n  0x00\n    /* \"#utility.yul\":1509:1573   */\n  tag_38\n    /* \"#utility.yul\":1565:1572   */\n  dup7\n    /* \"#utility.yul\":1556:1562   */\n  dup3\n    /* \"#utility.yul\":1545:1554   */\n  dup8\n    /* \"#utility.yul\":1541:1563   */\n  add\n    /* \"#utility.yul\":1509:1573   */\n  tag_13\n  jump\t// in\ntag_38:\n    /* \"#utility.yul\":1499:1573   */\n  swap4\n  pop\n    /* \"#utility.yul\":1455:1583   */\n  pop\n    /* \"#utility.yul\":1622:1624   */\n  0x20\n    /* \"#utility.yul\":1648:1712   */\n  tag_39\n    /* \"#utility.yul\":1704:1711   */\n  dup7\n    /* \"#utility.yul\":1695:1701   */\n  dup3\n    /* \"#utility.yul\":1684:1693   */\n  dup8\n    /* \"#utility.yul\":1680:1702   */\n  add\n    /* \"#utility.yul\":1648:1712   */\n  tag_13\n  jump\t// in\ntag_39:\n    /* \"#utility.yul\":1638:1712   */\n  swap3\n  pop\n    /* \"#utility.yul\":1593:1722   */\n  pop\n    /* \"#utility.yul\":1761:1763   */\n  0x40\n    /* \"#utility.yul\":1787:1851   */\n  tag_40\n    /* \"#utility.yul\":1843:1850   */\n  dup7\n    /* \"#utility.yul\":1834:1840   */\n  dup3\n    /* \"#utility.yul\":1823:1832   */\n  dup8\n    /* \"#utility.yul\":1819:1841   */\n  add\n    /* \"#utility.yul\":1787:1851   */\n  tag_16\n  jump\t// in\ntag_40:\n    /* \"#utility.yul\":1777:1851   */\n  swap2\n  pop\n    /* \"#utility.yul\":1732:1861   */\n  pop\n    /* \"#utility.yul\":1205:1868   */\n  swap3\n  pop\n  swap3\n  pop\n  swap3\n  jump\t// out\n    /* \"contracts/SimpleDEX.sol\":558:3123  contract SimpleDEX {... */\ntag_6:\n  dataSize(sub_0)\n  dup1\n  dataOffset(sub_0)\n  0x00\n  codecopy\n  0x00\n  return\nstop\n\nsub_0: assembly {\n        /* \"contracts/SimpleDEX.sol\":558:3123  contract SimpleDEX {... */\n      mstore(0x40, 0x80)\n      callvalue\n      dup1\n      iszero\n      tag_1\n      jumpi\n      0x00\n      dup1\n      revert\n    tag_1:\n      pop\n      jumpi(tag_2, lt(calldatasize, 0x04))\n      shr(0xe0, calldataload(0x00))\n      dup1\n      0x5f64b55b\n      gt\n      tag_12\n      jumpi\n      dup1\n      0x5f64b55b\n      eq\n      tag_7\n      jumpi\n      dup1\n      0x78e06cc1\n      eq\n      tag_8\n      jumpi\n      dup1\n      0x8da5cb5b\n      eq\n      tag_9\n      jumpi\n      dup1\n      0xdb068e0e\n      eq\n      tag_10\n      jumpi\n      dup1\n      0xe4b80048\n      eq\n      tag_11\n      jumpi\n      jump(tag_2)\n    tag_12:\n      dup1\n      0x0815cd6b\n      eq\n      tag_3\n      jumpi\n      dup1\n      0x0fc63d10\n      eq\n      tag_4\n      jumpi\n      dup1\n      0x3494b099\n      eq\n      tag_5\n      jumpi\n      dup1\n      0x3ba0b9a9\n      eq\n      tag_6\n      jumpi\n    tag_2:\n      0x00\n      dup1\n      revert\n        /* \"contracts/SimpleDEX.sol\":2366:2488  function balanceOfTokenB(address account) external view returns (uint) {... */\n    tag_3:\n      tag_13\n      0x04\n      dup1\n      calldatasize\n      sub\n      dup2\n      add\n      swap1\n      tag_14\n      swap2\n      swap1\n      tag_15\n      jump\t// in\n    tag_14:\n      tag_16\n      jump\t// in\n    tag_13:\n      mload(0x40)\n      tag_17\n      swap2\n      swap1\n      tag_18\n      jump\t// in\n    tag_17:\n      mload(0x40)\n      dup1\n      swap2\n      sub\n      swap1\n      return\n        /* \"contracts/SimpleDEX.sol\":611:631  IERC20 public tokenA */\n    tag_4:\n      tag_19\n      tag_20\n      jump\t// in\n    tag_19:\n      mload(0x40)\n      tag_21\n      swap2\n      swap1\n      tag_22\n      jump\t// in\n    tag_21:\n      mload(0x40)\n      dup1\n      swap2\n      sub\n      swap1\n      return\n        /* \"contracts/SimpleDEX.sol\":1152:1684  function exchangeTokenAForTokenB(uint amountA) external {... */\n    tag_5:\n      tag_23\n      0x04\n      dup1\n      calldatasize\n      sub\n      dup2\n      add\n      swap1\n      tag_24\n      swap2\n      swap1\n      tag_25\n      jump\t// in\n    tag_24:\n      tag_26\n      jump\t// in\n    tag_23:\n      stop\n        /* \"contracts/SimpleDEX.sol\":665:689  uint public exchangeRate */\n    tag_6:\n      tag_27\n      tag_28\n      jump\t// in\n    tag_27:\n      mload(0x40)\n      tag_29\n      swap2\n      swap1\n      tag_18\n      jump\t// in\n    tag_29:\n      mload(0x40)\n      dup1\n      swap2\n      sub\n      swap1\n      return\n        /* \"contracts/SimpleDEX.sol\":638:658  IERC20 public tokenB */\n    tag_7:\n      tag_30\n      tag_31\n      jump\t// in\n    tag_30:\n      mload(0x40)\n      tag_32\n      swap2\n      swap1\n      tag_22\n      jump\t// in\n    tag_32:\n      mload(0x40)\n      dup1\n      swap2\n      sub\n      swap1\n      return\n        /* \"contracts/SimpleDEX.sol\":2236:2358  function balanceOfTokenA(address account) external view returns (uint) {... */\n    tag_8:\n      tag_33\n      0x04\n      dup1\n      calldatasize\n      sub\n      dup2\n      add\n      swap1\n      tag_34\n      swap2\n      swap1\n      tag_15\n      jump\t// in\n    tag_34:\n      tag_35\n      jump\t// in\n    tag_33:\n      mload(0x40)\n      tag_36\n      swap2\n      swap1\n      tag_18\n      jump\t// in\n    tag_36:\n      mload(0x40)\n      dup1\n      swap2\n      sub\n      swap1\n      return\n        /* \"contracts/SimpleDEX.sol\":584:604  address public owner */\n    tag_9:\n      tag_37\n      tag_38\n      jump\t// in\n    tag_37:\n      mload(0x40)\n      tag_39\n      swap2\n      swap1\n      tag_40\n      jump\t// in\n    tag_39:\n      mload(0x40)\n      dup1\n      swap2\n      sub\n      swap1\n      return\n        /* \"contracts/SimpleDEX.sol\":1043:1144  function setExchangeRate(uint _newRate) external onlyOwner {... */\n    tag_10:\n      tag_41\n      0x04\n      dup1\n      calldatasize\n      sub\n      dup2\n      add\n      swap1\n      tag_42\n      swap2\n      swap1\n      tag_25\n      jump\t// in\n    tag_42:\n      tag_43\n      jump\t// in\n    tag_41:\n      stop\n        /* \"contracts/SimpleDEX.sol\":1692:2224  function exchangeTokenBForTokenA(uint amountB) external {... */\n    tag_11:\n      tag_44\n      0x04\n      dup1\n      calldatasize\n      sub\n      dup2\n      add\n      swap1\n      tag_45\n      swap2\n      swap1\n      tag_25\n      jump\t// in\n    tag_45:\n      tag_46\n      jump\t// in\n    tag_44:\n      stop\n        /* \"contracts/SimpleDEX.sol\":2366:2488  function balanceOfTokenB(address account) external view returns (uint) {... */\n    tag_16:\n        /* \"contracts/SimpleDEX.sol\":2431:2435  uint */\n      0x00\n        /* \"contracts/SimpleDEX.sol\":2455:2461  tokenB */\n      0x02\n      0x00\n      swap1\n      sload\n      swap1\n      0x0100\n      exp\n      swap1\n      div\n      0xffffffffffffffffffffffffffffffffffffffff\n      and\n        /* \"contracts/SimpleDEX.sol\":2455:2471  tokenB.balanceOf */\n      0xffffffffffffffffffffffffffffffffffffffff\n      and\n      0x70a08231\n        /* \"contracts/SimpleDEX.sol\":2472:2479  account */\n      dup4\n        /* \"contracts/SimpleDEX.sol\":2455:2480  tokenB.balanceOf(account) */\n      mload(0x40)\n      dup3\n      0xffffffff\n      and\n      0xe0\n      shl\n      dup2\n      mstore\n      0x04\n      add\n      tag_48\n      swap2\n      swap1\n      tag_40\n      jump\t// in\n    tag_48:\n      0x20\n      mload(0x40)\n      dup1\n      dup4\n      sub\n      dup2\n      dup7\n      gas\n      staticcall\n      iszero\n      dup1\n      iszero\n      tag_50\n      jumpi\n      returndatasize\n      0x00\n      dup1\n      returndatacopy\n      revert(0x00, returndatasize)\n    tag_50:\n      pop\n      pop\n      pop\n      pop\n      mload(0x40)\n      returndatasize\n      not(0x1f)\n      0x1f\n      dup3\n      add\n      and\n      dup3\n      add\n      dup1\n      0x40\n      mstore\n      pop\n      dup2\n      add\n      swap1\n      tag_51\n      swap2\n      swap1\n      tag_52\n      jump\t// in\n    tag_51:\n        /* \"contracts/SimpleDEX.sol\":2448:2480  return tokenB.balanceOf(account) */\n      swap1\n      pop\n        /* \"contracts/SimpleDEX.sol\":2366:2488  function balanceOfTokenB(address account) external view returns (uint) {... */\n      swap2\n      swap1\n      pop\n      jump\t// out\n        /* \"contracts/SimpleDEX.sol\":611:631  IERC20 public tokenA */\n    tag_20:\n      0x01\n      0x00\n      swap1\n      sload\n      swap1\n      0x0100\n      exp\n      swap1\n      div\n      0xffffffffffffffffffffffffffffffffffffffff\n      and\n      dup2\n      jump\t// out\n        /* \"contracts/SimpleDEX.sol\":1152:1684  function exchangeTokenAForTokenB(uint amountA) external {... */\n    tag_26:\n        /* \"contracts/SimpleDEX.sol\":1237:1238  0 */\n      0x00\n        /* \"contracts/SimpleDEX.sol\":1227:1234  amountA */\n      dup2\n        /* \"contracts/SimpleDEX.sol\":1227:1238  amountA > 0 */\n      gt\n        /* \"contracts/SimpleDEX.sol\":1219:1275  require(amountA > 0, \"Amount must be greater than zero\") */\n      tag_54\n      jumpi\n      mload(0x40)\n      0x08c379a000000000000000000000000000000000000000000000000000000000\n      dup2\n      mstore\n      0x04\n      add\n      tag_55\n      swap1\n      tag_56\n      jump\t// in\n    tag_55:\n      mload(0x40)\n      dup1\n      swap2\n      sub\n      swap1\n      revert\n    tag_54:\n        /* \"contracts/SimpleDEX.sol\":1296:1308  uint amountB */\n      0x00\n        /* \"contracts/SimpleDEX.sol\":1321:1333  exchangeRate */\n      sload(0x03)\n        /* \"contracts/SimpleDEX.sol\":1311:1318  amountA */\n      dup3\n        /* \"contracts/SimpleDEX.sol\":1311:1333  amountA * exchangeRate */\n      tag_57\n      swap2\n      swap1\n      tag_58\n      jump\t// in\n    tag_57:\n        /* \"contracts/SimpleDEX.sol\":1296:1333  uint amountB = amountA * exchangeRate */\n      swap1\n      pop\n        /* \"contracts/SimpleDEX.sol\":1387:1394  amountB */\n      dup1\n        /* \"contracts/SimpleDEX.sol\":1352:1358  tokenB */\n      0x02\n      0x00\n      swap1\n      sload\n      swap1\n      0x0100\n      exp\n      swap1\n      div\n      0xffffffffffffffffffffffffffffffffffffffff\n      and\n        /* \"contracts/SimpleDEX.sol\":1352:1368  tokenB.balanceOf */\n      0xffffffffffffffffffffffffffffffffffffffff\n      and\n      0x70a08231\n        /* \"contracts/SimpleDEX.sol\":1377:1381  this */\n      address\n        /* \"contracts/SimpleDEX.sol\":1352:1383  tokenB.balanceOf(address(this)) */\n      mload(0x40)\n      dup3\n      0xffffffff\n      and\n      0xe0\n      shl\n      dup2\n      mstore\n      0x04\n      add\n      tag_59\n      swap2\n      swap1\n      tag_40\n      jump\t// in\n    tag_59:\n      0x20\n      mload(0x40)\n      dup1\n      dup4\n      sub\n      dup2\n      dup7\n      gas\n      staticcall\n      iszero\n      dup1\n      iszero\n      tag_61\n      jumpi\n      returndatasize\n      0x00\n      dup1\n      returndatacopy\n      revert(0x00, returndatasize)\n    tag_61:\n      pop\n      pop\n      pop\n      pop\n      mload(0x40)\n      returndatasize\n      not(0x1f)\n      0x1f\n      dup3\n      add\n      and\n      dup3\n      add\n      dup1\n      0x40\n      mstore\n      pop\n      dup2\n      add\n      swap1\n      tag_62\n      swap2\n      swap1\n      tag_52\n      jump\t// in\n    tag_62:\n        /* \"contracts/SimpleDEX.sol\":1352:1394  tokenB.balanceOf(address(this)) >= amountB */\n      lt\n      iszero\n        /* \"contracts/SimpleDEX.sol\":1344:1438  require(tokenB.balanceOf(address(this)) >= amountB, \"Not enough tokenB liquidity in contract\") */\n      tag_63\n      jumpi\n      mload(0x40)\n      0x08c379a000000000000000000000000000000000000000000000000000000000\n      dup2\n      mstore\n      0x04\n      add\n      tag_64\n      swap1\n      tag_65\n      jump\t// in\n    tag_64:\n      mload(0x40)\n      dup1\n      swap2\n      sub\n      swap1\n      revert\n    tag_63:\n        /* \"contracts/SimpleDEX.sol\":1449:1455  tokenA */\n      0x01\n      0x00\n      swap1\n      sload\n      swap1\n      0x0100\n      exp\n      swap1\n      div\n      0xffffffffffffffffffffffffffffffffffffffff\n      and\n        /* \"contracts/SimpleDEX.sol\":1449:1463  tokenA.approve */\n      0xffffffffffffffffffffffffffffffffffffffff\n      and\n      0x095ea7b3\n        /* \"contracts/SimpleDEX.sol\":1472:1476  this */\n      address\n        /* \"contracts/SimpleDEX.sol\":1479:1486  amountA */\n      dup5\n        /* \"contracts/SimpleDEX.sol\":1449:1487  tokenA.approve(address(this), amountA) */\n      mload(0x40)\n      dup4\n      0xffffffff\n      and\n      0xe0\n      shl\n      dup2\n      mstore\n      0x04\n      add\n      tag_66\n      swap3\n      swap2\n      swap1\n      tag_67\n      jump\t// in\n    tag_66:\n      0x20\n      mload(0x40)\n      dup1\n      dup4\n      sub\n      dup2\n      0x00\n      dup8\n      gas\n      call\n      iszero\n      dup1\n      iszero\n      tag_69\n      jumpi\n      returndatasize\n      0x00\n      dup1\n      returndatacopy\n      revert(0x00, returndatasize)\n    tag_69:\n      pop\n      pop\n      pop\n      pop\n      mload(0x40)\n      returndatasize\n      not(0x1f)\n      0x1f\n      dup3\n      add\n      and\n      dup3\n      add\n      dup1\n      0x40\n      mstore\n      pop\n      dup2\n      add\n      swap1\n      tag_70\n      swap2\n      swap1\n      tag_71\n      jump\t// in\n    tag_70:\n      pop\n        /* \"contracts/SimpleDEX.sol\":1498:1504  tokenB */\n      0x02\n      0x00\n      swap1\n      sload\n      swap1\n      0x0100\n      exp\n      swap1\n      div\n      0xffffffffffffffffffffffffffffffffffffffff\n      and\n        /* \"contracts/SimpleDEX.sol\":1498:1512  tokenB.approve */\n      0xffffffffffffffffffffffffffffffffffffffff\n      and\n      0x095ea7b3\n        /* \"contracts/SimpleDEX.sol\":1521:1525  this */\n      address\n        /* \"contracts/SimpleDEX.sol\":1528:1535  amountB */\n      dup4\n        /* \"contracts/SimpleDEX.sol\":1498:1536  tokenB.approve(address(this), amountB) */\n      mload(0x40)\n      dup4\n      0xffffffff\n      and\n      0xe0\n      shl\n      dup2\n      mstore\n      0x04\n      add\n      tag_72\n      swap3\n      swap2\n      swap1\n      tag_67\n      jump\t// in\n    tag_72:\n      0x20\n      mload(0x40)\n      dup1\n      dup4\n      sub\n      dup2\n      0x00\n      dup8\n      gas\n      call\n      iszero\n      dup1\n      iszero\n      tag_74\n      jumpi\n      returndatasize\n      0x00\n      dup1\n      returndatacopy\n      revert(0x00, returndatasize)\n    tag_74:\n      pop\n      pop\n      pop\n      pop\n      mload(0x40)\n      returndatasize\n      not(0x1f)\n      0x1f\n      dup3\n      add\n      and\n      dup3\n      add\n      dup1\n      0x40\n      mstore\n      pop\n      dup2\n      add\n      swap1\n      tag_75\n      swap2\n      swap1\n      tag_71\n      jump\t// in\n    tag_75:\n      pop\n        /* \"contracts/SimpleDEX.sol\":1547:1606  _transferTokens(tokenA, msg.sender, address(this), amountA) */\n      tag_76\n        /* \"contracts/SimpleDEX.sol\":1563:1569  tokenA */\n      0x01\n      0x00\n      swap1\n      sload\n      swap1\n      0x0100\n      exp\n      swap1\n      div\n      0xffffffffffffffffffffffffffffffffffffffff\n      and\n        /* \"contracts/SimpleDEX.sol\":1571:1581  msg.sender */\n      caller\n        /* \"contracts/SimpleDEX.sol\":1591:1595  this */\n      address\n        /* \"contracts/SimpleDEX.sol\":1598:1605  amountA */\n      dup6\n        /* \"contracts/SimpleDEX.sol\":1547:1562  _transferTokens */\n      tag_77\n        /* \"contracts/SimpleDEX.sol\":1547:1606  _transferTokens(tokenA, msg.sender, address(this), amountA) */\n      jump\t// in\n    tag_76:\n        /* \"contracts/SimpleDEX.sol\":1617:1676  _transferTokens(tokenB, address(this), msg.sender, amountB) */\n      tag_78\n        /* \"contracts/SimpleDEX.sol\":1633:1639  tokenB */\n      0x02\n      0x00\n      swap1\n      sload\n      swap1\n      0x0100\n      exp\n      swap1\n      div\n      0xffffffffffffffffffffffffffffffffffffffff\n      and\n        /* \"contracts/SimpleDEX.sol\":1649:1653  this */\n      address\n        /* \"contracts/SimpleDEX.sol\":1656:1666  msg.sender */\n      caller\n        /* \"contracts/SimpleDEX.sol\":1668:1675  amountB */\n      dup5\n        /* \"contracts/SimpleDEX.sol\":1617:1632  _transferTokens */\n      tag_77\n        /* \"contracts/SimpleDEX.sol\":1617:1676  _transferTokens(tokenB, address(this), msg.sender, amountB) */\n      jump\t// in\n    tag_78:\n        /* \"contracts/SimpleDEX.sol\":1208:1684  {... */\n      pop\n        /* \"contracts/SimpleDEX.sol\":1152:1684  function exchangeTokenAForTokenB(uint amountA) external {... */\n      pop\n      jump\t// out\n        /* \"contracts/SimpleDEX.sol\":665:689  uint public exchangeRate */\n    tag_28:\n      sload(0x03)\n      dup2\n      jump\t// out\n        /* \"contracts/SimpleDEX.sol\":638:658  IERC20 public tokenB */\n    tag_31:\n      0x02\n      0x00\n      swap1\n      sload\n      swap1\n      0x0100\n      exp\n      swap1\n      div\n      0xffffffffffffffffffffffffffffffffffffffff\n      and\n      dup2\n      jump\t// out\n        /* \"contracts/SimpleDEX.sol\":2236:2358  function balanceOfTokenA(address account) external view returns (uint) {... */\n    tag_35:\n        /* \"contracts/SimpleDEX.sol\":2301:2305  uint */\n      0x00\n        /* \"contracts/SimpleDEX.sol\":2325:2331  tokenA */\n      0x01\n      0x00\n      swap1\n      sload\n      swap1\n      0x0100\n      exp\n      swap1\n      div\n      0xffffffffffffffffffffffffffffffffffffffff\n      and\n        /* \"contracts/SimpleDEX.sol\":2325:2341  tokenA.balanceOf */\n      0xffffffffffffffffffffffffffffffffffffffff\n      and\n      0x70a08231\n        /* \"contracts/SimpleDEX.sol\":2342:2349  account */\n      dup4\n        /* \"contracts/SimpleDEX.sol\":2325:2350  tokenA.balanceOf(account) */\n      mload(0x40)\n      dup3\n      0xffffffff\n      and\n      0xe0\n      shl\n      dup2\n      mstore\n      0x04\n      add\n      tag_80\n      swap2\n      swap1\n      tag_40\n      jump\t// in\n    tag_80:\n      0x20\n      mload(0x40)\n      dup1\n      dup4\n      sub\n      dup2\n      dup7\n      gas\n      staticcall\n      iszero\n      dup1\n      iszero\n      tag_82\n      jumpi\n      returndatasize\n      0x00\n      dup1\n      returndatacopy\n      revert(0x00, returndatasize)\n    tag_82:\n      pop\n      pop\n      pop\n      pop\n      mload(0x40)\n      returndatasize\n      not(0x1f)\n      0x1f\n      dup3\n      add\n      and\n      dup3\n      add\n      dup1\n      0x40\n      mstore\n      pop\n      dup2\n      add\n      swap1\n      tag_83\n      swap2\n      swap1\n      tag_52\n      jump\t// in\n    tag_83:\n        /* \"contracts/SimpleDEX.sol\":2318:2350  return tokenA.balanceOf(account) */\n      swap1\n      pop\n        /* \"contracts/SimpleDEX.sol\":2236:2358  function balanceOfTokenA(address account) external view returns (uint) {... */\n      swap2\n      swap1\n      pop\n      jump\t// out\n        /* \"contracts/SimpleDEX.sol\":584:604  address public owner */\n    tag_38:\n      0x00\n      dup1\n      sload\n      swap1\n      0x0100\n      exp\n      swap1\n      div\n      0xffffffffffffffffffffffffffffffffffffffff\n      and\n      dup2\n      jump\t// out\n        /* \"contracts/SimpleDEX.sol\":1043:1144  function setExchangeRate(uint _newRate) external onlyOwner {... */\n    tag_43:\n        /* \"contracts/SimpleDEX.sol\":752:757  owner */\n      0x00\n      dup1\n      sload\n      swap1\n      0x0100\n      exp\n      swap1\n      div\n      0xffffffffffffffffffffffffffffffffffffffff\n      and\n        /* \"contracts/SimpleDEX.sol\":738:757  msg.sender == owner */\n      0xffffffffffffffffffffffffffffffffffffffff\n      and\n        /* \"contracts/SimpleDEX.sol\":738:748  msg.sender */\n      caller\n        /* \"contracts/SimpleDEX.sol\":738:757  msg.sender == owner */\n      0xffffffffffffffffffffffffffffffffffffffff\n      and\n      eq\n        /* \"contracts/SimpleDEX.sol\":730:795  require(msg.sender == owner, \"Only owner can call this function\") */\n      tag_85\n      jumpi\n      mload(0x40)\n      0x08c379a000000000000000000000000000000000000000000000000000000000\n      dup2\n      mstore\n      0x04\n      add\n      tag_86\n      swap1\n      tag_87\n      jump\t// in\n    tag_86:\n      mload(0x40)\n      dup1\n      swap2\n      sub\n      swap1\n      revert\n    tag_85:\n        /* \"contracts/SimpleDEX.sol\":1128:1136  _newRate */\n      dup1\n        /* \"contracts/SimpleDEX.sol\":1113:1125  exchangeRate */\n      0x03\n        /* \"contracts/SimpleDEX.sol\":1113:1136  exchangeRate = _newRate */\n      dup2\n      swap1\n      sstore\n      pop\n        /* \"contracts/SimpleDEX.sol\":1043:1144  function setExchangeRate(uint _newRate) external onlyOwner {... */\n      pop\n      jump\t// out\n        /* \"contracts/SimpleDEX.sol\":1692:2224  function exchangeTokenBForTokenA(uint amountB) external {... */\n    tag_46:\n        /* \"contracts/SimpleDEX.sol\":1777:1778  0 */\n      0x00\n        /* \"contracts/SimpleDEX.sol\":1767:1774  amountB */\n      dup2\n        /* \"contracts/SimpleDEX.sol\":1767:1778  amountB > 0 */\n      gt\n        /* \"contracts/SimpleDEX.sol\":1759:1815  require(amountB > 0, \"Amount must be greater than zero\") */\n      tag_90\n      jumpi\n      mload(0x40)\n      0x08c379a000000000000000000000000000000000000000000000000000000000\n      dup2\n      mstore\n      0x04\n      add\n      tag_91\n      swap1\n      tag_56\n      jump\t// in\n    tag_91:\n      mload(0x40)\n      dup1\n      swap2\n      sub\n      swap1\n      revert\n    tag_90:\n        /* \"contracts/SimpleDEX.sol\":1835:1847  uint amountA */\n      0x00\n        /* \"contracts/SimpleDEX.sol\":1860:1872  exchangeRate */\n      sload(0x03)\n        /* \"contracts/SimpleDEX.sol\":1850:1857  amountB */\n      dup3\n        /* \"contracts/SimpleDEX.sol\":1850:1872  amountB / exchangeRate */\n      tag_92\n      swap2\n      swap1\n      tag_93\n      jump\t// in\n    tag_92:\n        /* \"contracts/SimpleDEX.sol\":1835:1872  uint amountA = amountB / exchangeRate */\n      swap1\n      pop\n        /* \"contracts/SimpleDEX.sol\":1927:1934  amountA */\n      dup1\n        /* \"contracts/SimpleDEX.sol\":1892:1898  tokenA */\n      0x01\n      0x00\n      swap1\n      sload\n      swap1\n      0x0100\n      exp\n      swap1\n      div\n      0xffffffffffffffffffffffffffffffffffffffff\n      and\n        /* \"contracts/SimpleDEX.sol\":1892:1908  tokenA.balanceOf */\n      0xffffffffffffffffffffffffffffffffffffffff\n      and\n      0x70a08231\n        /* \"contracts/SimpleDEX.sol\":1917:1921  this */\n      address\n        /* \"contracts/SimpleDEX.sol\":1892:1923  tokenA.balanceOf(address(this)) */\n      mload(0x40)\n      dup3\n      0xffffffff\n      and\n      0xe0\n      shl\n      dup2\n      mstore\n      0x04\n      add\n      tag_94\n      swap2\n      swap1\n      tag_40\n      jump\t// in\n    tag_94:\n      0x20\n      mload(0x40)\n      dup1\n      dup4\n      sub\n      dup2\n      dup7\n      gas\n      staticcall\n      iszero\n      dup1\n      iszero\n      tag_96\n      jumpi\n      returndatasize\n      0x00\n      dup1\n      returndatacopy\n      revert(0x00, returndatasize)\n    tag_96:\n      pop\n      pop\n      pop\n      pop\n      mload(0x40)\n      returndatasize\n      not(0x1f)\n      0x1f\n      dup3\n      add\n      and\n      dup3\n      add\n      dup1\n      0x40\n      mstore\n      pop\n      dup2\n      add\n      swap1\n      tag_97\n      swap2\n      swap1\n      tag_52\n      jump\t// in\n    tag_97:\n        /* \"contracts/SimpleDEX.sol\":1892:1934  tokenA.balanceOf(address(this)) >= amountA */\n      lt\n      iszero\n        /* \"contracts/SimpleDEX.sol\":1884:1978  require(tokenA.balanceOf(address(this)) >= amountA, \"Not enough tokenA liquidity in contract\") */\n      tag_98\n      jumpi\n      mload(0x40)\n      0x08c379a000000000000000000000000000000000000000000000000000000000\n      dup2\n      mstore\n      0x04\n      add\n      tag_99\n      swap1\n      tag_100\n      jump\t// in\n    tag_99:\n      mload(0x40)\n      dup1\n      swap2\n      sub\n      swap1\n      revert\n    tag_98:\n        /* \"contracts/SimpleDEX.sol\":1989:1995  tokenA */\n      0x01\n      0x00\n      swap1\n      sload\n      swap1\n      0x0100\n      exp\n      swap1\n      div\n      0xffffffffffffffffffffffffffffffffffffffff\n      and\n        /* \"contracts/SimpleDEX.sol\":1989:2003  tokenA.approve */\n      0xffffffffffffffffffffffffffffffffffffffff\n      and\n      0x095ea7b3\n        /* \"contracts/SimpleDEX.sol\":2012:2016  this */\n      address\n        /* \"contracts/SimpleDEX.sol\":2019:2026  amountA */\n      dup4\n        /* \"contracts/SimpleDEX.sol\":1989:2027  tokenA.approve(address(this), amountA) */\n      mload(0x40)\n      dup4\n      0xffffffff\n      and\n      0xe0\n      shl\n      dup2\n      mstore\n      0x04\n      add\n      tag_101\n      swap3\n      swap2\n      swap1\n      tag_67\n      jump\t// in\n    tag_101:\n      0x20\n      mload(0x40)\n      dup1\n      dup4\n      sub\n      dup2\n      0x00\n      dup8\n      gas\n      call\n      iszero\n      dup1\n      iszero\n      tag_103\n      jumpi\n      returndatasize\n      0x00\n      dup1\n      returndatacopy\n      revert(0x00, returndatasize)\n    tag_103:\n      pop\n      pop\n      pop\n      pop\n      mload(0x40)\n      returndatasize\n      not(0x1f)\n      0x1f\n      dup3\n      add\n      and\n      dup3\n      add\n      dup1\n      0x40\n      mstore\n      pop\n      dup2\n      add\n      swap1\n      tag_104\n      swap2\n      swap1\n      tag_71\n      jump\t// in\n    tag_104:\n      pop\n        /* \"contracts/SimpleDEX.sol\":2038:2044  tokenB */\n      0x02\n      0x00\n      swap1\n      sload\n      swap1\n      0x0100\n      exp\n      swap1\n      div\n      0xffffffffffffffffffffffffffffffffffffffff\n      and\n        /* \"contracts/SimpleDEX.sol\":2038:2052  tokenB.approve */\n      0xffffffffffffffffffffffffffffffffffffffff\n      and\n      0x095ea7b3\n        /* \"contracts/SimpleDEX.sol\":2061:2065  this */\n      address\n        /* \"contracts/SimpleDEX.sol\":2068:2075  amountB */\n      dup5\n        /* \"contracts/SimpleDEX.sol\":2038:2076  tokenB.approve(address(this), amountB) */\n      mload(0x40)\n      dup4\n      0xffffffff\n      and\n      0xe0\n      shl\n      dup2\n      mstore\n      0x04\n      add\n      tag_105\n      swap3\n      swap2\n      swap1\n      tag_67\n      jump\t// in\n    tag_105:\n      0x20\n      mload(0x40)\n      dup1\n      dup4\n      sub\n      dup2\n      0x00\n      dup8\n      gas\n      call\n      iszero\n      dup1\n      iszero\n      tag_107\n      jumpi\n      returndatasize\n      0x00\n      dup1\n      returndatacopy\n      revert(0x00, returndatasize)\n    tag_107:\n      pop\n      pop\n      pop\n      pop\n      mload(0x40)\n      returndatasize\n      not(0x1f)\n      0x1f\n      dup3\n      add\n      and\n      dup3\n      add\n      dup1\n      0x40\n      mstore\n      pop\n      dup2\n      add\n      swap1\n      tag_108\n      swap2\n      swap1\n      tag_71\n      jump\t// in\n    tag_108:\n      pop\n        /* \"contracts/SimpleDEX.sol\":2087:2146  _transferTokens(tokenB, msg.sender, address(this), amountB) */\n      tag_109\n        /* \"contracts/SimpleDEX.sol\":2103:2109  tokenB */\n      0x02\n      0x00\n      swap1\n      sload\n      swap1\n      0x0100\n      exp\n      swap1\n      div\n      0xffffffffffffffffffffffffffffffffffffffff\n      and\n        /* \"contracts/SimpleDEX.sol\":2111:2121  msg.sender */\n      caller\n        /* \"contracts/SimpleDEX.sol\":2131:2135  this */\n      address\n        /* \"contracts/SimpleDEX.sol\":2138:2145  amountB */\n      dup6\n        /* \"contracts/SimpleDEX.sol\":2087:2102  _transferTokens */\n      tag_77\n        /* \"contracts/SimpleDEX.sol\":2087:2146  _transferTokens(tokenB, msg.sender, address(this), amountB) */\n      jump\t// in\n    tag_109:\n        /* \"contracts/SimpleDEX.sol\":2157:2216  _transferTokens(tokenA, address(this), msg.sender, amountA) */\n      tag_110\n        /* \"contracts/SimpleDEX.sol\":2173:2179  tokenA */\n      0x01\n      0x00\n      swap1\n      sload\n      swap1\n      0x0100\n      exp\n      swap1\n      div\n      0xffffffffffffffffffffffffffffffffffffffff\n      and\n        /* \"contracts/SimpleDEX.sol\":2189:2193  this */\n      address\n        /* \"contracts/SimpleDEX.sol\":2196:2206  msg.sender */\n      caller\n        /* \"contracts/SimpleDEX.sol\":2208:2215  amountA */\n      dup5\n        /* \"contracts/SimpleDEX.sol\":2157:2172  _transferTokens */\n      tag_77\n        /* \"contracts/SimpleDEX.sol\":2157:2216  _transferTokens(tokenA, address(this), msg.sender, amountA) */\n      jump\t// in\n    tag_110:\n        /* \"contracts/SimpleDEX.sol\":1748:2224  {... */\n      pop\n        /* \"contracts/SimpleDEX.sol\":1692:2224  function exchangeTokenBForTokenA(uint amountB) external {... */\n      pop\n      jump\t// out\n        /* \"contracts/SimpleDEX.sol\":2548:3120  function _transferTokens(IERC20 token, address from, address to, uint amount) internal {... */\n    tag_77:\n        /* \"contracts/SimpleDEX.sol\":2646:2664  uint balanceBefore */\n      0x00\n        /* \"contracts/SimpleDEX.sol\":2667:2672  token */\n      dup5\n        /* \"contracts/SimpleDEX.sol\":2667:2682  token.balanceOf */\n      0xffffffffffffffffffffffffffffffffffffffff\n      and\n      0x70a08231\n        /* \"contracts/SimpleDEX.sol\":2683:2685  to */\n      dup5\n        /* \"contracts/SimpleDEX.sol\":2667:2686  token.balanceOf(to) */\n      mload(0x40)\n      dup3\n      0xffffffff\n      and\n      0xe0\n      shl\n      dup2\n      mstore\n      0x04\n      add\n      tag_112\n      swap2\n      swap1\n      tag_40\n      jump\t// in\n    tag_112:\n      0x20\n      mload(0x40)\n      dup1\n      dup4\n      sub\n      dup2\n      dup7\n      gas\n      staticcall\n      iszero\n      dup1\n      iszero\n      tag_114\n      jumpi\n      returndatasize\n      0x00\n      dup1\n      returndatacopy\n      revert(0x00, returndatasize)\n    tag_114:\n      pop\n      pop\n      pop\n      pop\n      mload(0x40)\n      returndatasize\n      not(0x1f)\n      0x1f\n      dup3\n      add\n      and\n      dup3\n      add\n      dup1\n      0x40\n      mstore\n      pop\n      dup2\n      add\n      swap1\n      tag_115\n      swap2\n      swap1\n      tag_52\n      jump\t// in\n    tag_115:\n        /* \"contracts/SimpleDEX.sol\":2646:2686  uint balanceBefore = token.balanceOf(to) */\n      swap1\n      pop\n        /* \"contracts/SimpleDEX.sol\":2707:2719  bool success */\n      0x00\n        /* \"contracts/SimpleDEX.sol\":2750:2754  this */\n      address\n        /* \"contracts/SimpleDEX.sol\":2734:2755  from == address(this) */\n      0xffffffffffffffffffffffffffffffffffffffff\n      and\n        /* \"contracts/SimpleDEX.sol\":2734:2738  from */\n      dup6\n        /* \"contracts/SimpleDEX.sol\":2734:2755  from == address(this) */\n      0xffffffffffffffffffffffffffffffffffffffff\n      and\n      sub\n        /* \"contracts/SimpleDEX.sol\":2730:2899  if (from == address(this)) {... */\n      tag_116\n      jumpi\n        /* \"contracts/SimpleDEX.sol\":2782:2787  token */\n      dup6\n        /* \"contracts/SimpleDEX.sol\":2782:2796  token.transfer */\n      0xffffffffffffffffffffffffffffffffffffffff\n      and\n      0xa9059cbb\n        /* \"contracts/SimpleDEX.sol\":2797:2799  to */\n      dup6\n        /* \"contracts/SimpleDEX.sol\":2801:2807  amount */\n      dup6\n        /* \"contracts/SimpleDEX.sol\":2782:2808  token.transfer(to, amount) */\n      mload(0x40)\n      dup4\n      0xffffffff\n      and\n      0xe0\n      shl\n      dup2\n      mstore\n      0x04\n      add\n      tag_117\n      swap3\n      swap2\n      swap1\n      tag_67\n      jump\t// in\n    tag_117:\n      0x20\n      mload(0x40)\n      dup1\n      dup4\n      sub\n      dup2\n      0x00\n      dup8\n      gas\n      call\n      iszero\n      dup1\n      iszero\n      tag_119\n      jumpi\n      returndatasize\n      0x00\n      dup1\n      returndatacopy\n      revert(0x00, returndatasize)\n    tag_119:\n      pop\n      pop\n      pop\n      pop\n      mload(0x40)\n      returndatasize\n      not(0x1f)\n      0x1f\n      dup3\n      add\n      and\n      dup3\n      add\n      dup1\n      0x40\n      mstore\n      pop\n      dup2\n      add\n      swap1\n      tag_120\n      swap2\n      swap1\n      tag_71\n      jump\t// in\n    tag_120:\n        /* \"contracts/SimpleDEX.sol\":2772:2808  success = token.transfer(to, amount) */\n      swap1\n      pop\n        /* \"contracts/SimpleDEX.sol\":2730:2899  if (from == address(this)) {... */\n      jump(tag_121)\n    tag_116:\n        /* \"contracts/SimpleDEX.sol\":2851:2856  token */\n      dup6\n        /* \"contracts/SimpleDEX.sol\":2851:2869  token.transferFrom */\n      0xffffffffffffffffffffffffffffffffffffffff\n      and\n      0x23b872dd\n        /* \"contracts/SimpleDEX.sol\":2870:2874  from */\n      dup7\n        /* \"contracts/SimpleDEX.sol\":2876:2878  to */\n      dup7\n        /* \"contracts/SimpleDEX.sol\":2880:2886  amount */\n      dup7\n        /* \"contracts/SimpleDEX.sol\":2851:2887  token.transferFrom(from, to, amount) */\n      mload(0x40)\n      dup5\n      0xffffffff\n      and\n      0xe0\n      shl\n      dup2\n      mstore\n      0x04\n      add\n      tag_122\n      swap4\n      swap3\n      swap2\n      swap1\n      tag_123\n      jump\t// in\n    tag_122:\n      0x20\n      mload(0x40)\n      dup1\n      dup4\n      sub\n      dup2\n      0x00\n      dup8\n      gas\n      call\n      iszero\n      dup1\n      iszero\n      tag_125\n      jumpi\n      returndatasize\n      0x00\n      dup1\n      returndatacopy\n      revert(0x00, returndatasize)\n    tag_125:\n      pop\n      pop\n      pop\n      pop\n      mload(0x40)\n      returndatasize\n      not(0x1f)\n      0x1f\n      dup3\n      add\n      and\n      dup3\n      add\n      dup1\n      0x40\n      mstore\n      pop\n      dup2\n      add\n      swap1\n      tag_126\n      swap2\n      swap1\n      tag_71\n      jump\t// in\n    tag_126:\n        /* \"contracts/SimpleDEX.sol\":2841:2887  success = token.transferFrom(from, to, amount) */\n      swap1\n      pop\n        /* \"contracts/SimpleDEX.sol\":2730:2899  if (from == address(this)) {... */\n    tag_121:\n        /* \"contracts/SimpleDEX.sol\":2927:2934  success */\n      dup1\n        /* \"contracts/SimpleDEX.sol\":2919:2960  require(success, \"Token transfer failed\") */\n      tag_127\n      jumpi\n      mload(0x40)\n      0x08c379a000000000000000000000000000000000000000000000000000000000\n      dup2\n      mstore\n      0x04\n      add\n      tag_128\n      swap1\n      tag_129\n      jump\t// in\n    tag_128:\n      mload(0x40)\n      dup1\n      swap2\n      sub\n      swap1\n      revert\n    tag_127:\n        /* \"contracts/SimpleDEX.sol\":2981:2998  uint balanceAfter */\n      0x00\n        /* \"contracts/SimpleDEX.sol\":3001:3006  token */\n      dup7\n        /* \"contracts/SimpleDEX.sol\":3001:3016  token.balanceOf */\n      0xffffffffffffffffffffffffffffffffffffffff\n      and\n      0x70a08231\n        /* \"contracts/SimpleDEX.sol\":3017:3019  to */\n      dup7\n        /* \"contracts/SimpleDEX.sol\":3001:3020  token.balanceOf(to) */\n      mload(0x40)\n      dup3\n      0xffffffff\n      and\n      0xe0\n      shl\n      dup2\n      mstore\n      0x04\n      add\n      tag_130\n      swap2\n      swap1\n      tag_40\n      jump\t// in\n    tag_130:\n      0x20\n      mload(0x40)\n      dup1\n      dup4\n      sub\n      dup2\n      dup7\n      gas\n      staticcall\n      iszero\n      dup1\n      iszero\n      tag_132\n      jumpi\n      returndatasize\n      0x00\n      dup1\n      returndatacopy\n      revert(0x00, returndatasize)\n    tag_132:\n      pop\n      pop\n      pop\n      pop\n      mload(0x40)\n      returndatasize\n      not(0x1f)\n      0x1f\n      dup3\n      add\n      and\n      dup3\n      add\n      dup1\n      0x40\n      mstore\n      pop\n      dup2\n      add\n      swap1\n      tag_133\n      swap2\n      swap1\n      tag_52\n      jump\t// in\n    tag_133:\n        /* \"contracts/SimpleDEX.sol\":2981:3020  uint balanceAfter = token.balanceOf(to) */\n      swap1\n      pop\n        /* \"contracts/SimpleDEX.sol\":3071:3077  amount */\n      dup4\n        /* \"contracts/SimpleDEX.sol\":3054:3067  balanceBefore */\n      dup4\n        /* \"contracts/SimpleDEX.sol\":3039:3051  balanceAfter */\n      dup3\n        /* \"contracts/SimpleDEX.sol\":3039:3067  balanceAfter - balanceBefore */\n      tag_134\n      swap2\n      swap1\n      tag_135\n      jump\t// in\n    tag_134:\n        /* \"contracts/SimpleDEX.sol\":3039:3077  balanceAfter - balanceBefore == amount */\n      eq\n        /* \"contracts/SimpleDEX.sol\":3031:3112  require(balanceAfter - balanceBefore == amount, \"Token transfer amount mismatch\") */\n      tag_136\n      jumpi\n      mload(0x40)\n      0x08c379a000000000000000000000000000000000000000000000000000000000\n      dup2\n      mstore\n      0x04\n      add\n      tag_137\n      swap1\n      tag_138\n      jump\t// in\n    tag_137:\n      mload(0x40)\n      dup1\n      swap2\n      sub\n      swap1\n      revert\n    tag_136:\n        /* \"contracts/SimpleDEX.sol\":2635:3120  {... */\n      pop\n      pop\n      pop\n        /* \"contracts/SimpleDEX.sol\":2548:3120  function _transferTokens(IERC20 token, address from, address to, uint amount) internal {... */\n      pop\n      pop\n      pop\n      pop\n      jump\t// out\n        /* \"#utility.yul\":88:205   */\n    tag_140:\n        /* \"#utility.yul\":197:198   */\n      0x00\n        /* \"#utility.yul\":194:195   */\n      dup1\n        /* \"#utility.yul\":187:199   */\n      revert\n        /* \"#utility.yul\":334:460   */\n    tag_142:\n        /* \"#utility.yul\":371:378   */\n      0x00\n        /* \"#utility.yul\":411:453   */\n      0xffffffffffffffffffffffffffffffffffffffff\n        /* \"#utility.yul\":404:409   */\n      dup3\n        /* \"#utility.yul\":400:454   */\n      and\n        /* \"#utility.yul\":389:454   */\n      swap1\n      pop\n        /* \"#utility.yul\":334:460   */\n      swap2\n      swap1\n      pop\n      jump\t// out\n        /* \"#utility.yul\":466:562   */\n    tag_143:\n        /* \"#utility.yul\":503:510   */\n      0x00\n        /* \"#utility.yul\":532:556   */\n      tag_181\n        /* \"#utility.yul\":550:555   */\n      dup3\n        /* \"#utility.yul\":532:556   */\n      tag_142\n      jump\t// in\n    tag_181:\n        /* \"#utility.yul\":521:556   */\n      swap1\n      pop\n        /* \"#utility.yul\":466:562   */\n      swap2\n      swap1\n      pop\n      jump\t// out\n        /* \"#utility.yul\":568:690   */\n    tag_144:\n        /* \"#utility.yul\":641:665   */\n      tag_183\n        /* \"#utility.yul\":659:664   */\n      dup2\n        /* \"#utility.yul\":641:665   */\n      tag_143\n      jump\t// in\n    tag_183:\n        /* \"#utility.yul\":634:639   */\n      dup2\n        /* \"#utility.yul\":631:666   */\n      eq\n        /* \"#utility.yul\":621:684   */\n      tag_184\n      jumpi\n        /* \"#utility.yul\":680:681   */\n      0x00\n        /* \"#utility.yul\":677:678   */\n      dup1\n        /* \"#utility.yul\":670:682   */\n      revert\n        /* \"#utility.yul\":621:684   */\n    tag_184:\n        /* \"#utility.yul\":568:690   */\n      pop\n      jump\t// out\n        /* \"#utility.yul\":696:835   */\n    tag_145:\n        /* \"#utility.yul\":742:747   */\n      0x00\n        /* \"#utility.yul\":780:786   */\n      dup2\n        /* \"#utility.yul\":767:787   */\n      calldataload\n        /* \"#utility.yul\":758:787   */\n      swap1\n      pop\n        /* \"#utility.yul\":796:829   */\n      tag_186\n        /* \"#utility.yul\":823:828   */\n      dup2\n        /* \"#utility.yul\":796:829   */\n      tag_144\n      jump\t// in\n    tag_186:\n        /* \"#utility.yul\":696:835   */\n      swap3\n      swap2\n      pop\n      pop\n      jump\t// out\n        /* \"#utility.yul\":841:1170   */\n    tag_15:\n        /* \"#utility.yul\":900:906   */\n      0x00\n        /* \"#utility.yul\":949:951   */\n      0x20\n        /* \"#utility.yul\":937:946   */\n      dup3\n        /* \"#utility.yul\":928:935   */\n      dup5\n        /* \"#utility.yul\":924:947   */\n      sub\n        /* \"#utility.yul\":920:952   */\n      slt\n        /* \"#utility.yul\":917:1036   */\n      iszero\n      tag_188\n      jumpi\n        /* \"#utility.yul\":955:1034   */\n      tag_189\n      tag_140\n      jump\t// in\n    tag_189:\n        /* \"#utility.yul\":917:1036   */\n    tag_188:\n        /* \"#utility.yul\":1075:1076   */\n      0x00\n        /* \"#utility.yul\":1100:1153   */\n      tag_190\n        /* \"#utility.yul\":1145:1152   */\n      dup5\n        /* \"#utility.yul\":1136:1142   */\n      dup3\n        /* \"#utility.yul\":1125:1134   */\n      dup6\n        /* \"#utility.yul\":1121:1143   */\n      add\n        /* \"#utility.yul\":1100:1153   */\n      tag_145\n      jump\t// in\n    tag_190:\n        /* \"#utility.yul\":1090:1153   */\n      swap2\n      pop\n        /* \"#utility.yul\":1046:1163   */\n      pop\n        /* \"#utility.yul\":841:1170   */\n      swap3\n      swap2\n      pop\n      pop\n      jump\t// out\n        /* \"#utility.yul\":1176:1253   */\n    tag_146:\n        /* \"#utility.yul\":1213:1220   */\n      0x00\n        /* \"#utility.yul\":1242:1247   */\n      dup2\n        /* \"#utility.yul\":1231:1247   */\n      swap1\n      pop\n        /* \"#utility.yul\":1176:1253   */\n      swap2\n      swap1\n      pop\n      jump\t// out\n        /* \"#utility.yul\":1259:1377   */\n    tag_147:\n        /* \"#utility.yul\":1346:1370   */\n      tag_193\n        /* \"#utility.yul\":1364:1369   */\n      dup2\n        /* \"#utility.yul\":1346:1370   */\n      tag_146\n      jump\t// in\n    tag_193:\n        /* \"#utility.yul\":1341:1344   */\n      dup3\n        /* \"#utility.yul\":1334:1371   */\n      mstore\n        /* \"#utility.yul\":1259:1377   */\n      pop\n      pop\n      jump\t// out\n        /* \"#utility.yul\":1383:1605   */\n    tag_18:\n        /* \"#utility.yul\":1476:1480   */\n      0x00\n        /* \"#utility.yul\":1514:1516   */\n      0x20\n        /* \"#utility.yul\":1503:1512   */\n      dup3\n        /* \"#utility.yul\":1499:1517   */\n      add\n        /* \"#utility.yul\":1491:1517   */\n      swap1\n      pop\n        /* \"#utility.yul\":1527:1598   */\n      tag_195\n        /* \"#utility.yul\":1595:1596   */\n      0x00\n        /* \"#utility.yul\":1584:1593   */\n      dup4\n        /* \"#utility.yul\":1580:1597   */\n      add\n        /* \"#utility.yul\":1571:1577   */\n      dup5\n        /* \"#utility.yul\":1527:1598   */\n      tag_147\n      jump\t// in\n    tag_195:\n        /* \"#utility.yul\":1383:1605   */\n      swap3\n      swap2\n      pop\n      pop\n      jump\t// out\n        /* \"#utility.yul\":1611:1671   */\n    tag_148:\n        /* \"#utility.yul\":1639:1642   */\n      0x00\n        /* \"#utility.yul\":1660:1665   */\n      dup2\n        /* \"#utility.yul\":1653:1665   */\n      swap1\n      pop\n        /* \"#utility.yul\":1611:1671   */\n      swap2\n      swap1\n      pop\n      jump\t// out\n        /* \"#utility.yul\":1677:1819   */\n    tag_149:\n        /* \"#utility.yul\":1727:1736   */\n      0x00\n        /* \"#utility.yul\":1760:1813   */\n      tag_198\n        /* \"#utility.yul\":1778:1812   */\n      tag_199\n        /* \"#utility.yul\":1787:1811   */\n      tag_200\n        /* \"#utility.yul\":1805:1810   */\n      dup5\n        /* \"#utility.yul\":1787:1811   */\n      tag_142\n      jump\t// in\n    tag_200:\n        /* \"#utility.yul\":1778:1812   */\n      tag_148\n      jump\t// in\n    tag_199:\n        /* \"#utility.yul\":1760:1813   */\n      tag_142\n      jump\t// in\n    tag_198:\n        /* \"#utility.yul\":1747:1813   */\n      swap1\n      pop\n        /* \"#utility.yul\":1677:1819   */\n      swap2\n      swap1\n      pop\n      jump\t// out\n        /* \"#utility.yul\":1825:1951   */\n    tag_150:\n        /* \"#utility.yul\":1875:1884   */\n      0x00\n        /* \"#utility.yul\":1908:1945   */\n      tag_202\n        /* \"#utility.yul\":1939:1944   */\n      dup3\n        /* \"#utility.yul\":1908:1945   */\n      tag_149\n      jump\t// in\n    tag_202:\n        /* \"#utility.yul\":1895:1945   */\n      swap1\n      pop\n        /* \"#utility.yul\":1825:1951   */\n      swap2\n      swap1\n      pop\n      jump\t// out\n        /* \"#utility.yul\":1957:2096   */\n    tag_151:\n        /* \"#utility.yul\":2020:2029   */\n      0x00\n        /* \"#utility.yul\":2053:2090   */\n      tag_204\n        /* \"#utility.yul\":2084:2089   */\n      dup3\n        /* \"#utility.yul\":2053:2090   */\n      tag_150\n      jump\t// in\n    tag_204:\n        /* \"#utility.yul\":2040:2090   */\n      swap1\n      pop\n        /* \"#utility.yul\":1957:2096   */\n      swap2\n      swap1\n      pop\n      jump\t// out\n        /* \"#utility.yul\":2102:2259   */\n    tag_152:\n        /* \"#utility.yul\":2202:2252   */\n      tag_206\n        /* \"#utility.yul\":2246:2251   */\n      dup2\n        /* \"#utility.yul\":2202:2252   */\n      tag_151\n      jump\t// in\n    tag_206:\n        /* \"#utility.yul\":2197:2200   */\n      dup3\n        /* \"#utility.yul\":2190:2253   */\n      mstore\n        /* \"#utility.yul\":2102:2259   */\n      pop\n      pop\n      jump\t// out\n        /* \"#utility.yul\":2265:2513   */\n    tag_22:\n        /* \"#utility.yul\":2371:2375   */\n      0x00\n        /* \"#utility.yul\":2409:2411   */\n      0x20\n        /* \"#utility.yul\":2398:2407   */\n      dup3\n        /* \"#utility.yul\":2394:2412   */\n      add\n        /* \"#utility.yul\":2386:2412   */\n      swap1\n      pop\n        /* \"#utility.yul\":2422:2506   */\n      tag_208\n        /* \"#utility.yul\":2503:2504   */\n      0x00\n        /* \"#utility.yul\":2492:2501   */\n      dup4\n        /* \"#utility.yul\":2488:2505   */\n      add\n        /* \"#utility.yul\":2479:2485   */\n      dup5\n        /* \"#utility.yul\":2422:2506   */\n      tag_152\n      jump\t// in\n    tag_208:\n        /* \"#utility.yul\":2265:2513   */\n      swap3\n      swap2\n      pop\n      pop\n      jump\t// out\n        /* \"#utility.yul\":2519:2641   */\n    tag_153:\n        /* \"#utility.yul\":2592:2616   */\n      tag_210\n        /* \"#utility.yul\":2610:2615   */\n      dup2\n        /* \"#utility.yul\":2592:2616   */\n      tag_146\n      jump\t// in\n    tag_210:\n        /* \"#utility.yul\":2585:2590   */\n      dup2\n        /* \"#utility.yul\":2582:2617   */\n      eq\n        /* \"#utility.yul\":2572:2635   */\n      tag_211\n      jumpi\n        /* \"#utility.yul\":2631:2632   */\n      0x00\n        /* \"#utility.yul\":2628:2629   */\n      dup1\n        /* \"#utility.yul\":2621:2633   */\n      revert\n        /* \"#utility.yul\":2572:2635   */\n    tag_211:\n        /* \"#utility.yul\":2519:2641   */\n      pop\n      jump\t// out\n        /* \"#utility.yul\":2647:2786   */\n    tag_154:\n        /* \"#utility.yul\":2693:2698   */\n      0x00\n        /* \"#utility.yul\":2731:2737   */\n      dup2\n        /* \"#utility.yul\":2718:2738   */\n      calldataload\n        /* \"#utility.yul\":2709:2738   */\n      swap1\n      pop\n        /* \"#utility.yul\":2747:2780   */\n      tag_213\n        /* \"#utility.yul\":2774:2779   */\n      dup2\n        /* \"#utility.yul\":2747:2780   */\n      tag_153\n      jump\t// in\n    tag_213:\n        /* \"#utility.yul\":2647:2786   */\n      swap3\n      swap2\n      pop\n      pop\n      jump\t// out\n        /* \"#utility.yul\":2792:3121   */\n    tag_25:\n        /* \"#utility.yul\":2851:2857   */\n      0x00\n        /* \"#utility.yul\":2900:2902   */\n      0x20\n        /* \"#utility.yul\":2888:2897   */\n      dup3\n        /* \"#utility.yul\":2879:2886   */\n      dup5\n        /* \"#utility.yul\":2875:2898   */\n      sub\n        /* \"#utility.yul\":2871:2903   */\n      slt\n        /* \"#utility.yul\":2868:2987   */\n      iszero\n      tag_215\n      jumpi\n        /* \"#utility.yul\":2906:2985   */\n      tag_216\n      tag_140\n      jump\t// in\n    tag_216:\n        /* \"#utility.yul\":2868:2987   */\n    tag_215:\n        /* \"#utility.yul\":3026:3027   */\n      0x00\n        /* \"#utility.yul\":3051:3104   */\n      tag_217\n        /* \"#utility.yul\":3096:3103   */\n      dup5\n        /* \"#utility.yul\":3087:3093   */\n      dup3\n        /* \"#utility.yul\":3076:3085   */\n      dup6\n        /* \"#utility.yul\":3072:3094   */\n      add\n        /* \"#utility.yul\":3051:3104   */\n      tag_154\n      jump\t// in\n    tag_217:\n        /* \"#utility.yul\":3041:3104   */\n      swap2\n      pop\n        /* \"#utility.yul\":2997:3114   */\n      pop\n        /* \"#utility.yul\":2792:3121   */\n      swap3\n      swap2\n      pop\n      pop\n      jump\t// out\n        /* \"#utility.yul\":3127:3245   */\n    tag_155:\n        /* \"#utility.yul\":3214:3238   */\n      tag_219\n        /* \"#utility.yul\":3232:3237   */\n      dup2\n        /* \"#utility.yul\":3214:3238   */\n      tag_143\n      jump\t// in\n    tag_219:\n        /* \"#utility.yul\":3209:3212   */\n      dup3\n        /* \"#utility.yul\":3202:3239   */\n      mstore\n        /* \"#utility.yul\":3127:3245   */\n      pop\n      pop\n      jump\t// out\n        /* \"#utility.yul\":3251:3473   */\n    tag_40:\n        /* \"#utility.yul\":3344:3348   */\n      0x00\n        /* \"#utility.yul\":3382:3384   */\n      0x20\n        /* \"#utility.yul\":3371:3380   */\n      dup3\n        /* \"#utility.yul\":3367:3385   */\n      add\n        /* \"#utility.yul\":3359:3385   */\n      swap1\n      pop\n        /* \"#utility.yul\":3395:3466   */\n      tag_221\n        /* \"#utility.yul\":3463:3464   */\n      0x00\n        /* \"#utility.yul\":3452:3461   */\n      dup4\n        /* \"#utility.yul\":3448:3465   */\n      add\n        /* \"#utility.yul\":3439:3445   */\n      dup5\n        /* \"#utility.yul\":3395:3466   */\n      tag_155\n      jump\t// in\n    tag_221:\n        /* \"#utility.yul\":3251:3473   */\n      swap3\n      swap2\n      pop\n      pop\n      jump\t// out\n        /* \"#utility.yul\":3479:3622   */\n    tag_156:\n        /* \"#utility.yul\":3536:3541   */\n      0x00\n        /* \"#utility.yul\":3567:3573   */\n      dup2\n        /* \"#utility.yul\":3561:3574   */\n      mload\n        /* \"#utility.yul\":3552:3574   */\n      swap1\n      pop\n        /* \"#utility.yul\":3583:3616   */\n      tag_223\n        /* \"#utility.yul\":3610:3615   */\n      dup2\n        /* \"#utility.yul\":3583:3616   */\n      tag_153\n      jump\t// in\n    tag_223:\n        /* \"#utility.yul\":3479:3622   */\n      swap3\n      swap2\n      pop\n      pop\n      jump\t// out\n        /* \"#utility.yul\":3628:3979   */\n    tag_52:\n        /* \"#utility.yul\":3698:3704   */\n      0x00\n        /* \"#utility.yul\":3747:3749   */\n      0x20\n        /* \"#utility.yul\":3735:3744   */\n      dup3\n        /* \"#utility.yul\":3726:3733   */\n      dup5\n        /* \"#utility.yul\":3722:3745   */\n      sub\n        /* \"#utility.yul\":3718:3750   */\n      slt\n        /* \"#utility.yul\":3715:3834   */\n      iszero\n      tag_225\n      jumpi\n        /* \"#utility.yul\":3753:3832   */\n      tag_226\n      tag_140\n      jump\t// in\n    tag_226:\n        /* \"#utility.yul\":3715:3834   */\n    tag_225:\n        /* \"#utility.yul\":3873:3874   */\n      0x00\n        /* \"#utility.yul\":3898:3962   */\n      tag_227\n        /* \"#utility.yul\":3954:3961   */\n      dup5\n        /* \"#utility.yul\":3945:3951   */\n      dup3\n        /* \"#utility.yul\":3934:3943   */\n      dup6\n        /* \"#utility.yul\":3930:3952   */\n      add\n        /* \"#utility.yul\":3898:3962   */\n      tag_156\n      jump\t// in\n    tag_227:\n        /* \"#utility.yul\":3888:3962   */\n      swap2\n      pop\n        /* \"#utility.yul\":3844:3972   */\n      pop\n        /* \"#utility.yul\":3628:3979   */\n      swap3\n      swap2\n      pop\n      pop\n      jump\t// out\n        /* \"#utility.yul\":3985:4154   */\n    tag_157:\n        /* \"#utility.yul\":4069:4080   */\n      0x00\n        /* \"#utility.yul\":4103:4109   */\n      dup3\n        /* \"#utility.yul\":4098:4101   */\n      dup3\n        /* \"#utility.yul\":4091:4110   */\n      mstore\n        /* \"#utility.yul\":4143:4147   */\n      0x20\n        /* \"#utility.yul\":4138:4141   */\n      dup3\n        /* \"#utility.yul\":4134:4148   */\n      add\n        /* \"#utility.yul\":4119:4148   */\n      swap1\n      pop\n        /* \"#utility.yul\":3985:4154   */\n      swap3\n      swap2\n      pop\n      pop\n      jump\t// out\n        /* \"#utility.yul\":4160:4342   */\n    tag_158:\n        /* \"#utility.yul\":4300:4334   */\n      0x416d6f756e74206d7573742062652067726561746572207468616e207a65726f\n        /* \"#utility.yul\":4296:4297   */\n      0x00\n        /* \"#utility.yul\":4288:4294   */\n      dup3\n        /* \"#utility.yul\":4284:4298   */\n      add\n        /* \"#utility.yul\":4277:4335   */\n      mstore\n        /* \"#utility.yul\":4160:4342   */\n      pop\n      jump\t// out\n        /* \"#utility.yul\":4348:4714   */\n    tag_159:\n        /* \"#utility.yul\":4490:4493   */\n      0x00\n        /* \"#utility.yul\":4511:4578   */\n      tag_231\n        /* \"#utility.yul\":4575:4577   */\n      0x20\n        /* \"#utility.yul\":4570:4573   */\n      dup4\n        /* \"#utility.yul\":4511:4578   */\n      tag_157\n      jump\t// in\n    tag_231:\n        /* \"#utility.yul\":4504:4578   */\n      swap2\n      pop\n        /* \"#utility.yul\":4587:4680   */\n      tag_232\n        /* \"#utility.yul\":4676:4679   */\n      dup3\n        /* \"#utility.yul\":4587:4680   */\n      tag_158\n      jump\t// in\n    tag_232:\n        /* \"#utility.yul\":4705:4707   */\n      0x20\n        /* \"#utility.yul\":4700:4703   */\n      dup3\n        /* \"#utility.yul\":4696:4708   */\n      add\n        /* \"#utility.yul\":4689:4708   */\n      swap1\n      pop\n        /* \"#utility.yul\":4348:4714   */\n      swap2\n      swap1\n      pop\n      jump\t// out\n        /* \"#utility.yul\":4720:5139   */\n    tag_56:\n        /* \"#utility.yul\":4886:4890   */\n      0x00\n        /* \"#utility.yul\":4924:4926   */\n      0x20\n        /* \"#utility.yul\":4913:4922   */\n      dup3\n        /* \"#utility.yul\":4909:4927   */\n      add\n        /* \"#utility.yul\":4901:4927   */\n      swap1\n      pop\n        /* \"#utility.yul\":4973:4982   */\n      dup2\n        /* \"#utility.yul\":4967:4971   */\n      dup2\n        /* \"#utility.yul\":4963:4983   */\n      sub\n        /* \"#utility.yul\":4959:4960   */\n      0x00\n        /* \"#utility.yul\":4948:4957   */\n      dup4\n        /* \"#utility.yul\":4944:4961   */\n      add\n        /* \"#utility.yul\":4937:4984   */\n      mstore\n        /* \"#utility.yul\":5001:5132   */\n      tag_234\n        /* \"#utility.yul\":5127:5131   */\n      dup2\n        /* \"#utility.yul\":5001:5132   */\n      tag_159\n      jump\t// in\n    tag_234:\n        /* \"#utility.yul\":4993:5132   */\n      swap1\n      pop\n        /* \"#utility.yul\":4720:5139   */\n      swap2\n      swap1\n      pop\n      jump\t// out\n        /* \"#utility.yul\":5145:5325   */\n    tag_160:\n        /* \"#utility.yul\":5193:5270   */\n      0x4e487b7100000000000000000000000000000000000000000000000000000000\n        /* \"#utility.yul\":5190:5191   */\n      0x00\n        /* \"#utility.yul\":5183:5271   */\n      mstore\n        /* \"#utility.yul\":5290:5294   */\n      0x11\n        /* \"#utility.yul\":5287:5288   */\n      0x04\n        /* \"#utility.yul\":5280:5295   */\n      mstore\n        /* \"#utility.yul\":5314:5318   */\n      0x24\n        /* \"#utility.yul\":5311:5312   */\n      0x00\n        /* \"#utility.yul\":5304:5319   */\n      revert\n        /* \"#utility.yul\":5331:5741   */\n    tag_58:\n        /* \"#utility.yul\":5371:5378   */\n      0x00\n        /* \"#utility.yul\":5394:5414   */\n      tag_237\n        /* \"#utility.yul\":5412:5413   */\n      dup3\n        /* \"#utility.yul\":5394:5414   */\n      tag_146\n      jump\t// in\n    tag_237:\n        /* \"#utility.yul\":5389:5414   */\n      swap2\n      pop\n        /* \"#utility.yul\":5428:5448   */\n      tag_238\n        /* \"#utility.yul\":5446:5447   */\n      dup4\n        /* \"#utility.yul\":5428:5448   */\n      tag_146\n      jump\t// in\n    tag_238:\n        /* \"#utility.yul\":5423:5448   */\n      swap3\n      pop\n        /* \"#utility.yul\":5483:5484   */\n      dup3\n        /* \"#utility.yul\":5480:5481   */\n      dup3\n        /* \"#utility.yul\":5476:5485   */\n      mul\n        /* \"#utility.yul\":5505:5535   */\n      tag_239\n        /* \"#utility.yul\":5523:5534   */\n      dup2\n        /* \"#utility.yul\":5505:5535   */\n      tag_146\n      jump\t// in\n    tag_239:\n        /* \"#utility.yul\":5494:5535   */\n      swap2\n      pop\n        /* \"#utility.yul\":5684:5685   */\n      dup3\n        /* \"#utility.yul\":5675:5682   */\n      dup3\n        /* \"#utility.yul\":5671:5686   */\n      div\n        /* \"#utility.yul\":5668:5669   */\n      dup5\n        /* \"#utility.yul\":5665:5687   */\n      eq\n        /* \"#utility.yul\":5645:5646   */\n      dup4\n        /* \"#utility.yul\":5638:5647   */\n      iszero\n        /* \"#utility.yul\":5618:5701   */\n      or\n        /* \"#utility.yul\":5595:5734   */\n      tag_240\n      jumpi\n        /* \"#utility.yul\":5714:5732   */\n      tag_241\n      tag_160\n      jump\t// in\n    tag_241:\n        /* \"#utility.yul\":5595:5734   */\n    tag_240:\n        /* \"#utility.yul\":5379:5741   */\n      pop\n        /* \"#utility.yul\":5331:5741   */\n      swap3\n      swap2\n      pop\n      pop\n      jump\t// out\n        /* \"#utility.yul\":5747:5973   */\n    tag_161:\n        /* \"#utility.yul\":5887:5921   */\n      0x4e6f7420656e6f75676820746f6b656e42206c697175696469747920696e2063\n        /* \"#utility.yul\":5883:5884   */\n      0x00\n        /* \"#utility.yul\":5875:5881   */\n      dup3\n        /* \"#utility.yul\":5871:5885   */\n      add\n        /* \"#utility.yul\":5864:5922   */\n      mstore\n        /* \"#utility.yul\":5956:5965   */\n      0x6f6e747261637400000000000000000000000000000000000000000000000000\n        /* \"#utility.yul\":5951:5953   */\n      0x20\n        /* \"#utility.yul\":5943:5949   */\n      dup3\n        /* \"#utility.yul\":5939:5954   */\n      add\n        /* \"#utility.yul\":5932:5966   */\n      mstore\n        /* \"#utility.yul\":5747:5973   */\n      pop\n      jump\t// out\n        /* \"#utility.yul\":5979:6345   */\n    tag_162:\n        /* \"#utility.yul\":6121:6124   */\n      0x00\n        /* \"#utility.yul\":6142:6209   */\n      tag_244\n        /* \"#utility.yul\":6206:6208   */\n      0x27\n        /* \"#utility.yul\":6201:6204   */\n      dup4\n        /* \"#utility.yul\":6142:6209   */\n      tag_157\n      jump\t// in\n    tag_244:\n        /* \"#utility.yul\":6135:6209   */\n      swap2\n      pop\n        /* \"#utility.yul\":6218:6311   */\n      tag_245\n        /* \"#utility.yul\":6307:6310   */\n      dup3\n        /* \"#utility.yul\":6218:6311   */\n      tag_161\n      jump\t// in\n    tag_245:\n        /* \"#utility.yul\":6336:6338   */\n      0x40\n        /* \"#utility.yul\":6331:6334   */\n      dup3\n        /* \"#utility.yul\":6327:6339   */\n      add\n        /* \"#utility.yul\":6320:6339   */\n      swap1\n      pop\n        /* \"#utility.yul\":5979:6345   */\n      swap2\n      swap1\n      pop\n      jump\t// out\n        /* \"#utility.yul\":6351:6770   */\n    tag_65:\n        /* \"#utility.yul\":6517:6521   */\n      0x00\n        /* \"#utility.yul\":6555:6557   */\n      0x20\n        /* \"#utility.yul\":6544:6553   */\n      dup3\n        /* \"#utility.yul\":6540:6558   */\n      add\n        /* \"#utility.yul\":6532:6558   */\n      swap1\n      pop\n        /* \"#utility.yul\":6604:6613   */\n      dup2\n        /* \"#utility.yul\":6598:6602   */\n      dup2\n        /* \"#utility.yul\":6594:6614   */\n      sub\n        /* \"#utility.yul\":6590:6591   */\n      0x00\n        /* \"#utility.yul\":6579:6588   */\n      dup4\n        /* \"#utility.yul\":6575:6592   */\n      add\n        /* \"#utility.yul\":6568:6615   */\n      mstore\n        /* \"#utility.yul\":6632:6763   */\n      tag_247\n        /* \"#utility.yul\":6758:6762   */\n      dup2\n        /* \"#utility.yul\":6632:6763   */\n      tag_162\n      jump\t// in\n    tag_247:\n        /* \"#utility.yul\":6624:6763   */\n      swap1\n      pop\n        /* \"#utility.yul\":6351:6770   */\n      swap2\n      swap1\n      pop\n      jump\t// out\n        /* \"#utility.yul\":6776:7108   */\n    tag_67:\n        /* \"#utility.yul\":6897:6901   */\n      0x00\n        /* \"#utility.yul\":6935:6937   */\n      0x40\n        /* \"#utility.yul\":6924:6933   */\n      dup3\n        /* \"#utility.yul\":6920:6938   */\n      add\n        /* \"#utility.yul\":6912:6938   */\n      swap1\n      pop\n        /* \"#utility.yul\":6948:7019   */\n      tag_249\n        /* \"#utility.yul\":7016:7017   */\n      0x00\n        /* \"#utility.yul\":7005:7014   */\n      dup4\n        /* \"#utility.yul\":7001:7018   */\n      add\n        /* \"#utility.yul\":6992:6998   */\n      dup6\n        /* \"#utility.yul\":6948:7019   */\n      tag_155\n      jump\t// in\n    tag_249:\n        /* \"#utility.yul\":7029:7101   */\n      tag_250\n        /* \"#utility.yul\":7097:7099   */\n      0x20\n        /* \"#utility.yul\":7086:7095   */\n      dup4\n        /* \"#utility.yul\":7082:7100   */\n      add\n        /* \"#utility.yul\":7073:7079   */\n      dup5\n        /* \"#utility.yul\":7029:7101   */\n      tag_147\n      jump\t// in\n    tag_250:\n        /* \"#utility.yul\":6776:7108   */\n      swap4\n      swap3\n      pop\n      pop\n      pop\n      jump\t// out\n        /* \"#utility.yul\":7114:7204   */\n    tag_163:\n        /* \"#utility.yul\":7148:7155   */\n      0x00\n        /* \"#utility.yul\":7191:7196   */\n      dup2\n        /* \"#utility.yul\":7184:7197   */\n      iszero\n        /* \"#utility.yul\":7177:7198   */\n      iszero\n        /* \"#utility.yul\":7166:7198   */\n      swap1\n      pop\n        /* \"#utility.yul\":7114:7204   */\n      swap2\n      swap1\n      pop\n      jump\t// out\n        /* \"#utility.yul\":7210:7326   */\n    tag_164:\n        /* \"#utility.yul\":7280:7301   */\n      tag_253\n        /* \"#utility.yul\":7295:7300   */\n      dup2\n        /* \"#utility.yul\":7280:7301   */\n      tag_163\n      jump\t// in\n    tag_253:\n        /* \"#utility.yul\":7273:7278   */\n      dup2\n        /* \"#utility.yul\":7270:7302   */\n      eq\n        /* \"#utility.yul\":7260:7320   */\n      tag_254\n      jumpi\n        /* \"#utility.yul\":7316:7317   */\n      0x00\n        /* \"#utility.yul\":7313:7314   */\n      dup1\n        /* \"#utility.yul\":7306:7318   */\n      revert\n        /* \"#utility.yul\":7260:7320   */\n    tag_254:\n        /* \"#utility.yul\":7210:7326   */\n      pop\n      jump\t// out\n        /* \"#utility.yul\":7332:7469   */\n    tag_165:\n        /* \"#utility.yul\":7386:7391   */\n      0x00\n        /* \"#utility.yul\":7417:7423   */\n      dup2\n        /* \"#utility.yul\":7411:7424   */\n      mload\n        /* \"#utility.yul\":7402:7424   */\n      swap1\n      pop\n        /* \"#utility.yul\":7433:7463   */\n      tag_256\n        /* \"#utility.yul\":7457:7462   */\n      dup2\n        /* \"#utility.yul\":7433:7463   */\n      tag_164\n      jump\t// in\n    tag_256:\n        /* \"#utility.yul\":7332:7469   */\n      swap3\n      swap2\n      pop\n      pop\n      jump\t// out\n        /* \"#utility.yul\":7475:7820   */\n    tag_71:\n        /* \"#utility.yul\":7542:7548   */\n      0x00\n        /* \"#utility.yul\":7591:7593   */\n      0x20\n        /* \"#utility.yul\":7579:7588   */\n      dup3\n        /* \"#utility.yul\":7570:7577   */\n      dup5\n        /* \"#utility.yul\":7566:7589   */\n      sub\n        /* \"#utility.yul\":7562:7594   */\n      slt\n        /* \"#utility.yul\":7559:7678   */\n      iszero\n      tag_258\n      jumpi\n        /* \"#utility.yul\":7597:7676   */\n      tag_259\n      tag_140\n      jump\t// in\n    tag_259:\n        /* \"#utility.yul\":7559:7678   */\n    tag_258:\n        /* \"#utility.yul\":7717:7718   */\n      0x00\n        /* \"#utility.yul\":7742:7803   */\n      tag_260\n        /* \"#utility.yul\":7795:7802   */\n      dup5\n        /* \"#utility.yul\":7786:7792   */\n      dup3\n        /* \"#utility.yul\":7775:7784   */\n      dup6\n        /* \"#utility.yul\":7771:7793   */\n      add\n        /* \"#utility.yul\":7742:7803   */\n      tag_165\n      jump\t// in\n    tag_260:\n        /* \"#utility.yul\":7732:7803   */\n      swap2\n      pop\n        /* \"#utility.yul\":7688:7813   */\n      pop\n        /* \"#utility.yul\":7475:7820   */\n      swap3\n      swap2\n      pop\n      pop\n      jump\t// out\n        /* \"#utility.yul\":7826:8046   */\n    tag_166:\n        /* \"#utility.yul\":7966:8000   */\n      0x4f6e6c79206f776e65722063616e2063616c6c20746869732066756e6374696f\n        /* \"#utility.yul\":7962:7963   */\n      0x00\n        /* \"#utility.yul\":7954:7960   */\n      dup3\n        /* \"#utility.yul\":7950:7964   */\n      add\n        /* \"#utility.yul\":7943:8001   */\n      mstore\n        /* \"#utility.yul\":8035:8038   */\n      0x6e00000000000000000000000000000000000000000000000000000000000000\n        /* \"#utility.yul\":8030:8032   */\n      0x20\n        /* \"#utility.yul\":8022:8028   */\n      dup3\n        /* \"#utility.yul\":8018:8033   */\n      add\n        /* \"#utility.yul\":8011:8039   */\n      mstore\n        /* \"#utility.yul\":7826:8046   */\n      pop\n      jump\t// out\n        /* \"#utility.yul\":8052:8418   */\n    tag_167:\n        /* \"#utility.yul\":8194:8197   */\n      0x00\n        /* \"#utility.yul\":8215:8282   */\n      tag_263\n        /* \"#utility.yul\":8279:8281   */\n      0x21\n        /* \"#utility.yul\":8274:8277   */\n      dup4\n        /* \"#utility.yul\":8215:8282   */\n      tag_157\n      jump\t// in\n    tag_263:\n        /* \"#utility.yul\":8208:8282   */\n      swap2\n      pop\n        /* \"#utility.yul\":8291:8384   */\n      tag_264\n        /* \"#utility.yul\":8380:8383   */\n      dup3\n        /* \"#utility.yul\":8291:8384   */\n      tag_166\n      jump\t// in\n    tag_264:\n        /* \"#utility.yul\":8409:8411   */\n      0x40\n        /* \"#utility.yul\":8404:8407   */\n      dup3\n        /* \"#utility.yul\":8400:8412   */\n      add\n        /* \"#utility.yul\":8393:8412   */\n      swap1\n      pop\n        /* \"#utility.yul\":8052:8418   */\n      swap2\n      swap1\n      pop\n      jump\t// out\n        /* \"#utility.yul\":8424:8843   */\n    tag_87:\n        /* \"#utility.yul\":8590:8594   */\n      0x00\n        /* \"#utility.yul\":8628:8630   */\n      0x20\n        /* \"#utility.yul\":8617:8626   */\n      dup3\n        /* \"#utility.yul\":8613:8631   */\n      add\n        /* \"#utility.yul\":8605:8631   */\n      swap1\n      pop\n        /* \"#utility.yul\":8677:8686   */\n      dup2\n        /* \"#utility.yul\":8671:8675   */\n      dup2\n        /* \"#utility.yul\":8667:8687   */\n      sub\n        /* \"#utility.yul\":8663:8664   */\n      0x00\n        /* \"#utility.yul\":8652:8661   */\n      dup4\n        /* \"#utility.yul\":8648:8665   */\n      add\n        /* \"#utility.yul\":8641:8688   */\n      mstore\n        /* \"#utility.yul\":8705:8836   */\n      tag_266\n        /* \"#utility.yul\":8831:8835   */\n      dup2\n        /* \"#utility.yul\":8705:8836   */\n      tag_167\n      jump\t// in\n    tag_266:\n        /* \"#utility.yul\":8697:8836   */\n      swap1\n      pop\n        /* \"#utility.yul\":8424:8843   */\n      swap2\n      swap1\n      pop\n      jump\t// out\n        /* \"#utility.yul\":8849:9029   */\n    tag_168:\n        /* \"#utility.yul\":8897:8974   */\n      0x4e487b7100000000000000000000000000000000000000000000000000000000\n        /* \"#utility.yul\":8894:8895   */\n      0x00\n        /* \"#utility.yul\":8887:8975   */\n      mstore\n        /* \"#utility.yul\":8994:8998   */\n      0x12\n        /* \"#utility.yul\":8991:8992   */\n      0x04\n        /* \"#utility.yul\":8984:8999   */\n      mstore\n        /* \"#utility.yul\":9018:9022   */\n      0x24\n        /* \"#utility.yul\":9015:9016   */\n      0x00\n        /* \"#utility.yul\":9008:9023   */\n      revert\n        /* \"#utility.yul\":9035:9220   */\n    tag_93:\n        /* \"#utility.yul\":9075:9076   */\n      0x00\n        /* \"#utility.yul\":9092:9112   */\n      tag_269\n        /* \"#utility.yul\":9110:9111   */\n      dup3\n        /* \"#utility.yul\":9092:9112   */\n      tag_146\n      jump\t// in\n    tag_269:\n        /* \"#utility.yul\":9087:9112   */\n      swap2\n      pop\n        /* \"#utility.yul\":9126:9146   */\n      tag_270\n        /* \"#utility.yul\":9144:9145   */\n      dup4\n        /* \"#utility.yul\":9126:9146   */\n      tag_146\n      jump\t// in\n    tag_270:\n        /* \"#utility.yul\":9121:9146   */\n      swap3\n      pop\n        /* \"#utility.yul\":9165:9166   */\n      dup3\n        /* \"#utility.yul\":9155:9190   */\n      tag_271\n      jumpi\n        /* \"#utility.yul\":9170:9188   */\n      tag_272\n      tag_168\n      jump\t// in\n    tag_272:\n        /* \"#utility.yul\":9155:9190   */\n    tag_271:\n        /* \"#utility.yul\":9212:9213   */\n      dup3\n        /* \"#utility.yul\":9209:9210   */\n      dup3\n        /* \"#utility.yul\":9205:9214   */\n      div\n        /* \"#utility.yul\":9200:9214   */\n      swap1\n      pop\n        /* \"#utility.yul\":9035:9220   */\n      swap3\n      swap2\n      pop\n      pop\n      jump\t// out\n        /* \"#utility.yul\":9226:9452   */\n    tag_169:\n        /* \"#utility.yul\":9366:9400   */\n      0x4e6f7420656e6f75676820746f6b656e41206c697175696469747920696e2063\n        /* \"#utility.yul\":9362:9363   */\n      0x00\n        /* \"#utility.yul\":9354:9360   */\n      dup3\n        /* \"#utility.yul\":9350:9364   */\n      add\n        /* \"#utility.yul\":9343:9401   */\n      mstore\n        /* \"#utility.yul\":9435:9444   */\n      0x6f6e747261637400000000000000000000000000000000000000000000000000\n        /* \"#utility.yul\":9430:9432   */\n      0x20\n        /* \"#utility.yul\":9422:9428   */\n      dup3\n        /* \"#utility.yul\":9418:9433   */\n      add\n        /* \"#utility.yul\":9411:9445   */\n      mstore\n        /* \"#utility.yul\":9226:9452   */\n      pop\n      jump\t// out\n        /* \"#utility.yul\":9458:9824   */\n    tag_170:\n        /* \"#utility.yul\":9600:9603   */\n      0x00\n        /* \"#utility.yul\":9621:9688   */\n      tag_275\n        /* \"#utility.yul\":9685:9687   */\n      0x27\n        /* \"#utility.yul\":9680:9683   */\n      dup4\n        /* \"#utility.yul\":9621:9688   */\n      tag_157\n      jump\t// in\n    tag_275:\n        /* \"#utility.yul\":9614:9688   */\n      swap2\n      pop\n        /* \"#utility.yul\":9697:9790   */\n      tag_276\n        /* \"#utility.yul\":9786:9789   */\n      dup3\n        /* \"#utility.yul\":9697:9790   */\n      tag_169\n      jump\t// in\n    tag_276:\n        /* \"#utility.yul\":9815:9817   */\n      0x40\n        /* \"#utility.yul\":9810:9813   */\n      dup3\n        /* \"#utility.yul\":9806:9818   */\n      add\n        /* \"#utility.yul\":9799:9818   */\n      swap1\n      pop\n        /* \"#utility.yul\":9458:9824   */\n      swap2\n      swap1\n      pop\n      jump\t// out\n        /* \"#utility.yul\":9830:10249   */\n    tag_100:\n        /* \"#utility.yul\":9996:10000   */\n      0x00\n        /* \"#utility.yul\":10034:10036   */\n      0x20\n        /* \"#utility.yul\":10023:10032   */\n      dup3\n        /* \"#utility.yul\":10019:10037   */\n      add\n        /* \"#utility.yul\":10011:10037   */\n      swap1\n      pop\n        /* \"#utility.yul\":10083:10092   */\n      dup2\n        /* \"#utility.yul\":10077:10081   */\n      dup2\n        /* \"#utility.yul\":10073:10093   */\n      sub\n        /* \"#utility.yul\":10069:10070   */\n      0x00\n        /* \"#utility.yul\":10058:10067   */\n      dup4\n        /* \"#utility.yul\":10054:10071   */\n      add\n        /* \"#utility.yul\":10047:10094   */\n      mstore\n        /* \"#utility.yul\":10111:10242   */\n      tag_278\n        /* \"#utility.yul\":10237:10241   */\n      dup2\n        /* \"#utility.yul\":10111:10242   */\n      tag_170\n      jump\t// in\n    tag_278:\n        /* \"#utility.yul\":10103:10242   */\n      swap1\n      pop\n        /* \"#utility.yul\":9830:10249   */\n      swap2\n      swap1\n      pop\n      jump\t// out\n        /* \"#utility.yul\":10255:10697   */\n    tag_123:\n        /* \"#utility.yul\":10404:10408   */\n      0x00\n        /* \"#utility.yul\":10442:10444   */\n      0x60\n        /* \"#utility.yul\":10431:10440   */\n      dup3\n        /* \"#utility.yul\":10427:10445   */\n      add\n        /* \"#utility.yul\":10419:10445   */\n      swap1\n      pop\n        /* \"#utility.yul\":10455:10526   */\n      tag_280\n        /* \"#utility.yul\":10523:10524   */\n      0x00\n        /* \"#utility.yul\":10512:10521   */\n      dup4\n        /* \"#utility.yul\":10508:10525   */\n      add\n        /* \"#utility.yul\":10499:10505   */\n      dup7\n        /* \"#utility.yul\":10455:10526   */\n      tag_155\n      jump\t// in\n    tag_280:\n        /* \"#utility.yul\":10536:10608   */\n      tag_281\n        /* \"#utility.yul\":10604:10606   */\n      0x20\n        /* \"#utility.yul\":10593:10602   */\n      dup4\n        /* \"#utility.yul\":10589:10607   */\n      add\n        /* \"#utility.yul\":10580:10586   */\n      dup6\n        /* \"#utility.yul\":10536:10608   */\n      tag_155\n      jump\t// in\n    tag_281:\n        /* \"#utility.yul\":10618:10690   */\n      tag_282\n        /* \"#utility.yul\":10686:10688   */\n      0x40\n        /* \"#utility.yul\":10675:10684   */\n      dup4\n        /* \"#utility.yul\":10671:10689   */\n      add\n        /* \"#utility.yul\":10662:10668   */\n      dup5\n        /* \"#utility.yul\":10618:10690   */\n      tag_147\n      jump\t// in\n    tag_282:\n        /* \"#utility.yul\":10255:10697   */\n      swap5\n      swap4\n      pop\n      pop\n      pop\n      pop\n      jump\t// out\n        /* \"#utility.yul\":10703:10874   */\n    tag_171:\n        /* \"#utility.yul\":10843:10866   */\n      0x546f6b656e207472616e73666572206661696c65640000000000000000000000\n        /* \"#utility.yul\":10839:10840   */\n      0x00\n        /* \"#utility.yul\":10831:10837   */\n      dup3\n        /* \"#utility.yul\":10827:10841   */\n      add\n        /* \"#utility.yul\":10820:10867   */\n      mstore\n        /* \"#utility.yul\":10703:10874   */\n      pop\n      jump\t// out\n        /* \"#utility.yul\":10880:11246   */\n    tag_172:\n        /* \"#utility.yul\":11022:11025   */\n      0x00\n        /* \"#utility.yul\":11043:11110   */\n      tag_285\n        /* \"#utility.yul\":11107:11109   */\n      0x15\n        /* \"#utility.yul\":11102:11105   */\n      dup4\n        /* \"#utility.yul\":11043:11110   */\n      tag_157\n      jump\t// in\n    tag_285:\n        /* \"#utility.yul\":11036:11110   */\n      swap2\n      pop\n        /* \"#utility.yul\":11119:11212   */\n      tag_286\n        /* \"#utility.yul\":11208:11211   */\n      dup3\n        /* \"#utility.yul\":11119:11212   */\n      tag_171\n      jump\t// in\n    tag_286:\n        /* \"#utility.yul\":11237:11239   */\n      0x20\n        /* \"#utility.yul\":11232:11235   */\n      dup3\n        /* \"#utility.yul\":11228:11240   */\n      add\n        /* \"#utility.yul\":11221:11240   */\n      swap1\n      pop\n        /* \"#utility.yul\":10880:11246   */\n      swap2\n      swap1\n      pop\n      jump\t// out\n        /* \"#utility.yul\":11252:11671   */\n    tag_129:\n        /* \"#utility.yul\":11418:11422   */\n      0x00\n        /* \"#utility.yul\":11456:11458   */\n      0x20\n        /* \"#utility.yul\":11445:11454   */\n      dup3\n        /* \"#utility.yul\":11441:11459   */\n      add\n        /* \"#utility.yul\":11433:11459   */\n      swap1\n      pop\n        /* \"#utility.yul\":11505:11514   */\n      dup2\n        /* \"#utility.yul\":11499:11503   */\n      dup2\n        /* \"#utility.yul\":11495:11515   */\n      sub\n        /* \"#utility.yul\":11491:11492   */\n      0x00\n        /* \"#utility.yul\":11480:11489   */\n      dup4\n        /* \"#utility.yul\":11476:11493   */\n      add\n        /* \"#utility.yul\":11469:11516   */\n      mstore\n        /* \"#utility.yul\":11533:11664   */\n      tag_288\n        /* \"#utility.yul\":11659:11663   */\n      dup2\n        /* \"#utility.yul\":11533:11664   */\n      tag_172\n      jump\t// in\n    tag_288:\n        /* \"#utility.yul\":11525:11664   */\n      swap1\n      pop\n        /* \"#utility.yul\":11252:11671   */\n      swap2\n      swap1\n      pop\n      jump\t// out\n        /* \"#utility.yul\":11677:11871   */\n    tag_135:\n        /* \"#utility.yul\":11717:11721   */\n      0x00\n        /* \"#utility.yul\":11737:11757   */\n      tag_290\n        /* \"#utility.yul\":11755:11756   */\n      dup3\n        /* \"#utility.yul\":11737:11757   */\n      tag_146\n      jump\t// in\n    tag_290:\n        /* \"#utility.yul\":11732:11757   */\n      swap2\n      pop\n        /* \"#utility.yul\":11771:11791   */\n      tag_291\n        /* \"#utility.yul\":11789:11790   */\n      dup4\n        /* \"#utility.yul\":11771:11791   */\n      tag_146\n      jump\t// in\n    tag_291:\n        /* \"#utility.yul\":11766:11791   */\n      swap3\n      pop\n        /* \"#utility.yul\":11815:11816   */\n      dup3\n        /* \"#utility.yul\":11812:11813   */\n      dup3\n        /* \"#utility.yul\":11808:11817   */\n      sub\n        /* \"#utility.yul\":11800:11817   */\n      swap1\n      pop\n        /* \"#utility.yul\":11839:11840   */\n      dup2\n        /* \"#utility.yul\":11833:11837   */\n      dup2\n        /* \"#utility.yul\":11830:11841   */\n      gt\n        /* \"#utility.yul\":11827:11864   */\n      iszero\n      tag_292\n      jumpi\n        /* \"#utility.yul\":11844:11862   */\n      tag_293\n      tag_160\n      jump\t// in\n    tag_293:\n        /* \"#utility.yul\":11827:11864   */\n    tag_292:\n        /* \"#utility.yul\":11677:11871   */\n      swap3\n      swap2\n      pop\n      pop\n      jump\t// out\n        /* \"#utility.yul\":11877:12057   */\n    tag_173:\n        /* \"#utility.yul\":12017:12049   */\n      0x546f6b656e207472616e7366657220616d6f756e74206d69736d617463680000\n        /* \"#utility.yul\":12013:12014   */\n      0x00\n        /* \"#utility.yul\":12005:12011   */\n      dup3\n        /* \"#utility.yul\":12001:12015   */\n      add\n        /* \"#utility.yul\":11994:12050   */\n      mstore\n        /* \"#utility.yul\":11877:12057   */\n      pop\n      jump\t// out\n        /* \"#utility.yul\":12063:12429   */\n    tag_174:\n        /* \"#utility.yul\":12205:12208   */\n      0x00\n        /* \"#utility.yul\":12226:12293   */\n      tag_296\n        /* \"#utility.yul\":12290:12292   */\n      0x1e\n        /* \"#utility.yul\":12285:12288   */\n      dup4\n        /* \"#utility.yul\":12226:12293   */\n      tag_157\n      jump\t// in\n    tag_296:\n        /* \"#utility.yul\":12219:12293   */\n      swap2\n      pop\n        /* \"#utility.yul\":12302:12395   */\n      tag_297\n        /* \"#utility.yul\":12391:12394   */\n      dup3\n        /* \"#utility.yul\":12302:12395   */\n      tag_173\n      jump\t// in\n    tag_297:\n        /* \"#utility.yul\":12420:12422   */\n      0x20\n        /* \"#utility.yul\":12415:12418   */\n      dup3\n        /* \"#utility.yul\":12411:12423   */\n      add\n        /* \"#utility.yul\":12404:12423   */\n      swap1\n      pop\n        /* \"#utility.yul\":12063:12429   */\n      swap2\n      swap1\n      pop\n      jump\t// out\n        /* \"#utility.yul\":12435:12854   */\n    tag_138:\n        /* \"#utility.yul\":12601:12605   */\n      0x00\n        /* \"#utility.yul\":12639:12641   */\n      0x20\n        /* \"#utility.yul\":12628:12637   */\n      dup3\n        /* \"#utility.yul\":12624:12642   */\n      add\n        /* \"#utility.yul\":12616:12642   */\n      swap1\n      pop\n        /* \"#utility.yul\":12688:12697   */\n      dup2\n        /* \"#utility.yul\":12682:12686   */\n      dup2\n        /* \"#utility.yul\":12678:12698   */\n      sub\n        /* \"#utility.yul\":12674:12675   */\n      0x00\n        /* \"#utility.yul\":12663:12672   */\n      dup4\n        /* \"#utility.yul\":12659:12676   */\n      add\n        /* \"#utility.yul\":12652:12699   */\n      mstore\n        /* \"#utility.yul\":12716:12847   */\n      tag_299\n        /* \"#utility.yul\":12842:12846   */\n      dup2\n        /* \"#utility.yul\":12716:12847   */\n      tag_174\n      jump\t// in\n    tag_299:\n        /* \"#utility.yul\":12708:12847   */\n      swap1\n      pop\n        /* \"#utility.yul\":12435:12854   */\n      swap2\n      swap1\n      pop\n      jump\t// out\n\n    auxdata: 0xa264697066735822122022416eba341b35a3db09361f7455b525ca0c9a5be6ac9fecf89bcf3b449312a664736f6c63430008140033\n}\n",
				"bytecode": {
					"linkReferences": {},
					"object": "60806040523480156200001157600080fd5b50604051620015bd380380620015bd8339818101604052810190620000379190620001ae565b336000806101000a81548173ffffffffffffffffffffffffffffffffffffffff021916908373ffffffffffffffffffffffffffffffffffffffff16021790555082600160006101000a81548173ffffffffffffffffffffffffffffffffffffffff021916908373ffffffffffffffffffffffffffffffffffffffff16021790555081600260006101000a81548173ffffffffffffffffffffffffffffffffffffffff021916908373ffffffffffffffffffffffffffffffffffffffff160217905550806003819055505050506200020a565b600080fd5b600073ffffffffffffffffffffffffffffffffffffffff82169050919050565b60006200013b826200010e565b9050919050565b6200014d816200012e565b81146200015957600080fd5b50565b6000815190506200016d8162000142565b92915050565b6000819050919050565b620001888162000173565b81146200019457600080fd5b50565b600081519050620001a8816200017d565b92915050565b600080600060608486031215620001ca57620001c962000109565b5b6000620001da868287016200015c565b9350506020620001ed868287016200015c565b9250506040620002008682870162000197565b9150509250925092565b6113a3806200021a6000396000f3fe608060405234801561001057600080fd5b50600436106100935760003560e01c80635f64b55b116100665780635f64b55b1461012057806378e06cc11461013e5780638da5cb5b1461016e578063db068e0e1461018c578063e4b80048146101a857610093565b80630815cd6b146100985780630fc63d10146100c85780633494b099146100e65780633ba0b9a914610102575b600080fd5b6100b260048036038101906100ad9190610cf8565b6101c4565b6040516100bf9190610d3e565b60405180910390f35b6100d0610269565b6040516100dd9190610db8565b60405180910390f35b61010060048036038101906100fb9190610dff565b61028f565b005b61010a610564565b6040516101179190610d3e565b60405180910390f35b61012861056a565b6040516101359190610db8565b60405180910390f35b61015860048036038101906101539190610cf8565b610590565b6040516101659190610d3e565b60405180910390f35b610176610635565b6040516101839190610e3b565b60405180910390f35b6101a660048036038101906101a19190610dff565b610659565b005b6101c260048036038101906101bd9190610dff565b6106f1565b005b6000600260009054906101000a900473ffffffffffffffffffffffffffffffffffffffff1673ffffffffffffffffffffffffffffffffffffffff166370a08231836040518263ffffffff1660e01b81526004016102219190610e3b565b602060405180830381865afa15801561023e573d6000803e3d6000fd5b505050506040513d601f19601f820116820180604052508101906102629190610e6b565b9050919050565b600160009054906101000a900473ffffffffffffffffffffffffffffffffffffffff1681565b600081116102d2576040517f08c379a00000000000000000000000000000000000000000000000000000000081526004016102c990610ef5565b60405180910390fd5b6000600354826102e29190610f44565b905080600260009054906101000a900473ffffffffffffffffffffffffffffffffffffffff1673ffffffffffffffffffffffffffffffffffffffff166370a08231306040518263ffffffff1660e01b81526004016103409190610e3b565b602060405180830381865afa15801561035d573d6000803e3d6000fd5b505050506040513d601f19601f820116820180604052508101906103819190610e6b565b10156103c2576040517f08c379a00000000000000000000000000000000000000000000000000000000081526004016103b990610ff8565b60405180910390fd5b600160009054906101000a900473ffffffffffffffffffffffffffffffffffffffff1673ffffffffffffffffffffffffffffffffffffffff1663095ea7b330846040518363ffffffff1660e01b815260040161041f929190611018565b6020604051808303816000875af115801561043e573d6000803e3d6000fd5b505050506040513d601f19601f820116820180604052508101906104629190611079565b50600260009054906101000a900473ffffffffffffffffffffffffffffffffffffffff1673ffffffffffffffffffffffffffffffffffffffff1663095ea7b330836040518363ffffffff1660e01b81526004016104c0929190611018565b6020604051808303816000875af11580156104df573d6000803e3d6000fd5b505050506040513d601f19601f820116820180604052508101906105039190611079565b50610532600160009054906101000a900473ffffffffffffffffffffffffffffffffffffffff163330856109c6565b610560600260009054906101000a900473ffffffffffffffffffffffffffffffffffffffff163033846109c6565b5050565b60035481565b600260009054906101000a900473ffffffffffffffffffffffffffffffffffffffff1681565b6000600160009054906101000a900473ffffffffffffffffffffffffffffffffffffffff1673ffffffffffffffffffffffffffffffffffffffff166370a08231836040518263ffffffff1660e01b81526004016105ed9190610e3b565b602060405180830381865afa15801561060a573d6000803e3d6000fd5b505050506040513d601f19601f8201168201806040525081019061062e9190610e6b565b9050919050565b60008054906101000a900473ffffffffffffffffffffffffffffffffffffffff1681565b60008054906101000a900473ffffffffffffffffffffffffffffffffffffffff1673ffffffffffffffffffffffffffffffffffffffff163373ffffffffffffffffffffffffffffffffffffffff16146106e7576040517f08c379a00000000000000000000000000000000000000000000000000000000081526004016106de90611118565b60405180910390fd5b8060038190555050565b60008111610734576040517f08c379a000000000000000000000000000000000000000000000000000000000815260040161072b90610ef5565b60405180910390fd5b6000600354826107449190611167565b905080600160009054906101000a900473ffffffffffffffffffffffffffffffffffffffff1673ffffffffffffffffffffffffffffffffffffffff166370a08231306040518263ffffffff1660e01b81526004016107a29190610e3b565b602060405180830381865afa1580156107bf573d6000803e3d6000fd5b505050506040513d601f19601f820116820180604052508101906107e39190610e6b565b1015610824576040517f08c379a000000000000000000000000000000000000000000000000000000000815260040161081b9061120a565b60405180910390fd5b600160009054906101000a900473ffffffffffffffffffffffffffffffffffffffff1673ffffffffffffffffffffffffffffffffffffffff1663095ea7b330836040518363ffffffff1660e01b8152600401610881929190611018565b6020604051808303816000875af11580156108a0573d6000803e3d6000fd5b505050506040513d601f19601f820116820180604052508101906108c49190611079565b50600260009054906101000a900473ffffffffffffffffffffffffffffffffffffffff1673ffffffffffffffffffffffffffffffffffffffff1663095ea7b330846040518363ffffffff1660e01b8152600401610922929190611018565b6020604051808303816000875af1158015610941573d6000803e3d6000fd5b505050506040513d601f19601f820116820180604052508101906109659190611079565b50610994600260009054906101000a900473ffffffffffffffffffffffffffffffffffffffff163330856109c6565b6109c2600160009054906101000a900473ffffffffffffffffffffffffffffffffffffffff163033846109c6565b5050565b60008473ffffffffffffffffffffffffffffffffffffffff166370a08231846040518263ffffffff1660e01b8152600401610a019190610e3b565b602060405180830381865afa158015610a1e573d6000803e3d6000fd5b505050506040513d601f19601f82011682018060405250810190610a429190610e6b565b905060003073ffffffffffffffffffffffffffffffffffffffff168573ffffffffffffffffffffffffffffffffffffffff1603610afe578573ffffffffffffffffffffffffffffffffffffffff1663a9059cbb85856040518363ffffffff1660e01b8152600401610ab4929190611018565b6020604051808303816000875af1158015610ad3573d6000803e3d6000fd5b505050506040513d601f19601f82011682018060405250810190610af79190611079565b9050610b81565b8573ffffffffffffffffffffffffffffffffffffffff166323b872dd8686866040518463ffffffff1660e01b8152600401610b3b9392919061122a565b6020604051808303816000875af1158015610b5a573d6000803e3d6000fd5b505050506040513d601f19601f82011682018060405250810190610b7e9190611079565b90505b80610bc1576040517f08c379a0000000000000000000000000000000000000000000000000000000008152600401610bb8906112ad565b60405180910390fd5b60008673ffffffffffffffffffffffffffffffffffffffff166370a08231866040518263ffffffff1660e01b8152600401610bfc9190610e3b565b602060405180830381865afa158015610c19573d6000803e3d6000fd5b505050506040513d601f19601f82011682018060405250810190610c3d9190610e6b565b9050838382610c4c91906112cd565b14610c8c576040517f08c379a0000000000000000000000000000000000000000000000000000000008152600401610c839061134d565b60405180910390fd5b50505050505050565b600080fd5b600073ffffffffffffffffffffffffffffffffffffffff82169050919050565b6000610cc582610c9a565b9050919050565b610cd581610cba565b8114610ce057600080fd5b50565b600081359050610cf281610ccc565b92915050565b600060208284031215610d0e57610d0d610c95565b5b6000610d1c84828501610ce3565b91505092915050565b6000819050919050565b610d3881610d25565b82525050565b6000602082019050610d536000830184610d2f565b92915050565b6000819050919050565b6000610d7e610d79610d7484610c9a565b610d59565b610c9a565b9050919050565b6000610d9082610d63565b9050919050565b6000610da282610d85565b9050919050565b610db281610d97565b82525050565b6000602082019050610dcd6000830184610da9565b92915050565b610ddc81610d25565b8114610de757600080fd5b50565b600081359050610df981610dd3565b92915050565b600060208284031215610e1557610e14610c95565b5b6000610e2384828501610dea565b91505092915050565b610e3581610cba565b82525050565b6000602082019050610e506000830184610e2c565b92915050565b600081519050610e6581610dd3565b92915050565b600060208284031215610e8157610e80610c95565b5b6000610e8f84828501610e56565b91505092915050565b600082825260208201905092915050565b7f416d6f756e74206d7573742062652067726561746572207468616e207a65726f600082015250565b6000610edf602083610e98565b9150610eea82610ea9565b602082019050919050565b60006020820190508181036000830152610f0e81610ed2565b9050919050565b7f4e487b7100000000000000000000000000000000000000000000000000000000600052601160045260246000fd5b6000610f4f82610d25565b9150610f5a83610d25565b9250828202610f6881610d25565b91508282048414831517610f7f57610f7e610f15565b5b5092915050565b7f4e6f7420656e6f75676820746f6b656e42206c697175696469747920696e206360008201527f6f6e747261637400000000000000000000000000000000000000000000000000602082015250565b6000610fe2602783610e98565b9150610fed82610f86565b604082019050919050565b6000602082019050818103600083015261101181610fd5565b9050919050565b600060408201905061102d6000830185610e2c565b61103a6020830184610d2f565b9392505050565b60008115159050919050565b61105681611041565b811461106157600080fd5b50565b6000815190506110738161104d565b92915050565b60006020828403121561108f5761108e610c95565b5b600061109d84828501611064565b91505092915050565b7f4f6e6c79206f776e65722063616e2063616c6c20746869732066756e6374696f60008201527f6e00000000000000000000000000000000000000000000000000000000000000602082015250565b6000611102602183610e98565b915061110d826110a6565b604082019050919050565b60006020820190508181036000830152611131816110f5565b9050919050565b7f4e487b7100000000000000000000000000000000000000000000000000000000600052601260045260246000fd5b600061117282610d25565b915061117d83610d25565b92508261118d5761118c611138565b5b828204905092915050565b7f4e6f7420656e6f75676820746f6b656e41206c697175696469747920696e206360008201527f6f6e747261637400000000000000000000000000000000000000000000000000602082015250565b60006111f4602783610e98565b91506111ff82611198565b604082019050919050565b60006020820190508181036000830152611223816111e7565b9050919050565b600060608201905061123f6000830186610e2c565b61124c6020830185610e2c565b6112596040830184610d2f565b949350505050565b7f546f6b656e207472616e73666572206661696c65640000000000000000000000600082015250565b6000611297601583610e98565b91506112a282611261565b602082019050919050565b600060208201905081810360008301526112c68161128a565b9050919050565b60006112d882610d25565b91506112e383610d25565b92508282039050818111156112fb576112fa610f15565b5b92915050565b7f546f6b656e207472616e7366657220616d6f756e74206d69736d617463680000600082015250565b6000611337601e83610e98565b915061134282611301565b602082019050919050565b600060208201905081810360008301526113668161132a565b905091905056fea264697066735822122022416eba341b35a3db09361f7455b525ca0c9a5be6ac9fecf89bcf3b449312a664736f6c63430008140033",
					"opcodes": "PUSH1 0x80 PUSH1 0x40 MSTORE CALLVALUE DUP1 ISZERO PUSH3 0x11 JUMPI PUSH1 0x0 DUP1 REVERT JUMPDEST POP PUSH1 0x40 MLOAD PUSH3 0x15BD CODESIZE SUB DUP1 PUSH3 0x15BD DUP4 CODECOPY DUP2 DUP2 ADD PUSH1 0x40 MSTORE DUP2 ADD SWAP1 PUSH3 0x37 SWAP2 SWAP1 PUSH3 0x1AE JUMP JUMPDEST CALLER PUSH1 0x0 DUP1 PUSH2 0x100 EXP DUP2 SLOAD DUP2 PUSH20 0xFFFFFFFFFFFFFFFFFFFFFFFFFFFFFFFFFFFFFFFF MUL NOT AND SWAP1 DUP4 PUSH20 0xFFFFFFFFFFFFFFFFFFFFFFFFFFFFFFFFFFFFFFFF AND MUL OR SWAP1 SSTORE POP DUP3 PUSH1 0x1 PUSH1 0x0 PUSH2 0x100 EXP DUP2 SLOAD DUP2 PUSH20 0xFFFFFFFFFFFFFFFFFFFFFFFFFFFFFFFFFFFFFFFF MUL NOT AND SWAP1 DUP4 PUSH20 0xFFFFFFFFFFFFFFFFFFFFFFFFFFFFFFFFFFFFFFFF AND MUL OR SWAP1 SSTORE POP DUP2 PUSH1 0x2 PUSH1 0x0 PUSH2 0x100 EXP DUP2 SLOAD DUP2 PUSH20 0xFFFFFFFFFFFFFFFFFFFFFFFFFFFFFFFFFFFFFFFF MUL NOT AND SWAP1 DUP4 PUSH20 0xFFFFFFFFFFFFFFFFFFFFFFFFFFFFFFFFFFFFFFFF AND MUL OR SWAP1 SSTORE POP DUP1 PUSH1 0x3 DUP2 SWAP1 SSTORE POP POP POP POP PUSH3 0x20A JUMP JUMPDEST PUSH1 0x0 DUP1 REVERT JUMPDEST PUSH1 0x0 PUSH20 0xFFFFFFFFFFFFFFFFFFFFFFFFFFFFFFFFFFFFFFFF DUP3 AND SWAP1 POP SWAP2 SWAP1 POP JUMP JUMPDEST PUSH1 0x0 PUSH3 0x13B DUP3 PUSH3 0x10E JUMP JUMPDEST SWAP1 POP SWAP2 SWAP1 POP JUMP JUMPDEST PUSH3 0x14D DUP2 PUSH3 0x12E JUMP JUMPDEST DUP2 EQ PUSH3 0x159 JUMPI PUSH1 0x0 DUP1 REVERT JUMPDEST POP JUMP JUMPDEST PUSH1 0x0 DUP2 MLOAD SWAP1 POP PUSH3 0x16D DUP2 PUSH3 0x142 JUMP JUMPDEST SWAP3 SWAP2 POP POP JUMP JUMPDEST PUSH1 0x0 DUP2 SWAP1 POP SWAP2 SWAP1 POP JUMP JUMPDEST PUSH3 0x188 DUP2 PUSH3 0x173 JUMP JUMPDEST DUP2 EQ PUSH3 0x194 JUMPI PUSH1 0x0 DUP1 REVERT JUMPDEST POP JUMP JUMPDEST PUSH1 0x0 DUP2 MLOAD SWAP1 POP PUSH3 0x1A8 DUP2 PUSH3 0x17D JUMP JUMPDEST SWAP3 SWAP2 POP POP JUMP JUMPDEST PUSH1 0x0 DUP1 PUSH1 0x0 PUSH1 0x60 DUP5 DUP7 SUB SLT ISZERO PUSH3 0x1CA JUMPI PUSH3 0x1C9 PUSH3 0x109 JUMP JUMPDEST JUMPDEST PUSH1 0x0 PUSH3 0x1DA DUP7 DUP3 DUP8 ADD PUSH3 0x15C JUMP JUMPDEST SWAP4 POP POP PUSH1 0x20 PUSH3 0x1ED DUP7 DUP3 DUP8 ADD PUSH3 0x15C JUMP JUMPDEST SWAP3 POP POP PUSH1 0x40 PUSH3 0x200 DUP7 DUP3 DUP8 ADD PUSH3 0x197 JUMP JUMPDEST SWAP2 POP POP SWAP3 POP SWAP3 POP SWAP3 JUMP JUMPDEST PUSH2 0x13A3 DUP1 PUSH3 0x21A PUSH1 0x0 CODECOPY PUSH1 0x0 RETURN INVALID PUSH1 0x80 PUSH1 0x40 MSTORE CALLVALUE DUP1 ISZERO PUSH2 0x10 JUMPI PUSH1 0x0 DUP1 REVERT JUMPDEST POP PUSH1 0x4 CALLDATASIZE LT PUSH2 0x93 JUMPI PUSH1 0x0 CALLDATALOAD PUSH1 0xE0 SHR DUP1 PUSH4 0x5F64B55B GT PUSH2 0x66 JUMPI DUP1 PUSH4 0x5F64B55B EQ PUSH2 0x120 JUMPI DUP1 PUSH4 0x78E06CC1 EQ PUSH2 0x13E JUMPI DUP1 PUSH4 0x8DA5CB5B EQ PUSH2 0x16E JUMPI DUP1 PUSH4 0xDB068E0E EQ PUSH2 0x18C JUMPI DUP1 PUSH4 0xE4B80048 EQ PUSH2 0x1A8 JUMPI PUSH2 0x93 JUMP JUMPDEST DUP1 PUSH4 0x815CD6B EQ PUSH2 0x98 JUMPI DUP1 PUSH4 0xFC63D10 EQ PUSH2 0xC8 JUMPI DUP1 PUSH4 0x3494B099 EQ PUSH2 0xE6 JUMPI DUP1 PUSH4 0x3BA0B9A9 EQ PUSH2 0x102 JUMPI JUMPDEST PUSH1 0x0 DUP1 REVERT JUMPDEST PUSH2 0xB2 PUSH1 0x4 DUP1 CALLDATASIZE SUB DUP2 ADD SWAP1 PUSH2 0xAD SWAP2 SWAP1 PUSH2 0xCF8 JUMP JUMPDEST PUSH2 0x1C4 JUMP JUMPDEST PUSH1 0x40 MLOAD PUSH2 0xBF SWAP2 SWAP1 PUSH2 0xD3E JUMP JUMPDEST PUSH1 0x40 MLOAD DUP1 SWAP2 SUB SWAP1 RETURN JUMPDEST PUSH2 0xD0 PUSH2 0x269 JUMP JUMPDEST PUSH1 0x40 MLOAD PUSH2 0xDD SWAP2 SWAP1 PUSH2 0xDB8 JUMP JUMPDEST PUSH1 0x40 MLOAD DUP1 SWAP2 SUB SWAP1 RETURN JUMPDEST PUSH2 0x100 PUSH1 0x4 DUP1 CALLDATASIZE SUB DUP2 ADD SWAP1 PUSH2 0xFB SWAP2 SWAP1 PUSH2 0xDFF JUMP JUMPDEST PUSH2 0x28F JUMP JUMPDEST STOP JUMPDEST PUSH2 0x10A PUSH2 0x564 JUMP JUMPDEST PUSH1 0x40 MLOAD PUSH2 0x117 SWAP2 SWAP1 PUSH2 0xD3E JUMP JUMPDEST PUSH1 0x40 MLOAD DUP1 SWAP2 SUB SWAP1 RETURN JUMPDEST PUSH2 0x128 PUSH2 0x56A JUMP JUMPDEST PUSH1 0x40 MLOAD PUSH2 0x135 SWAP2 SWAP1 PUSH2 0xDB8 JUMP JUMPDEST PUSH1 0x40 MLOAD DUP1 SWAP2 SUB SWAP1 RETURN JUMPDEST PUSH2 0x158 PUSH1 0x4 DUP1 CALLDATASIZE SUB DUP2 ADD SWAP1 PUSH2 0x153 SWAP2 SWAP1 PUSH2 0xCF8 JUMP JUMPDEST PUSH2 0x590 JUMP JUMPDEST PUSH1 0x40 MLOAD PUSH2 0x165 SWAP2 SWAP1 PUSH2 0xD3E JUMP JUMPDEST PUSH1 0x40 MLOAD DUP1 SWAP2 SUB SWAP1 RETURN JUMPDEST PUSH2 0x176 PUSH2 0x635 JUMP JUMPDEST PUSH1 0x40 MLOAD PUSH2 0x183 SWAP2 SWAP1 PUSH2 0xE3B JUMP JUMPDEST PUSH1 0x40 MLOAD DUP1 SWAP2 SUB SWAP1 RETURN JUMPDEST PUSH2 0x1A6 PUSH1 0x4 DUP1 CALLDATASIZE SUB DUP2 ADD SWAP1 PUSH2 0x1A1 SWAP2 SWAP1 PUSH2 0xDFF JUMP JUMPDEST PUSH2 0x659 JUMP JUMPDEST STOP JUMPDEST PUSH2 0x1C2 PUSH1 0x4 DUP1 CALLDATASIZE SUB DUP2 ADD SWAP1 PUSH2 0x1BD SWAP2 SWAP1 PUSH2 0xDFF JUMP JUMPDEST PUSH2 0x6F1 JUMP JUMPDEST STOP JUMPDEST PUSH1 0x0 PUSH1 0x2 PUSH1 0x0 SWAP1 SLOAD SWAP1 PUSH2 0x100 EXP SWAP1 DIV PUSH20 0xFFFFFFFFFFFFFFFFFFFFFFFFFFFFFFFFFFFFFFFF AND PUSH20 0xFFFFFFFFFFFFFFFFFFFFFFFFFFFFFFFFFFFFFFFF AND PUSH4 0x70A08231 DUP4 PUSH1 0x40 MLOAD DUP3 PUSH4 0xFFFFFFFF AND PUSH1 0xE0 SHL DUP2 MSTORE PUSH1 0x4 ADD PUSH2 0x221 SWAP2 SWAP1 PUSH2 0xE3B JUMP JUMPDEST PUSH1 0x20 PUSH1 0x40 MLOAD DUP1 DUP4 SUB DUP2 DUP7 GAS STATICCALL ISZERO DUP1 ISZERO PUSH2 0x23E JUMPI RETURNDATASIZE PUSH1 0x0 DUP1 RETURNDATACOPY RETURNDATASIZE PUSH1 0x0 REVERT JUMPDEST POP POP POP POP PUSH1 0x40 MLOAD RETURNDATASIZE PUSH1 0x1F NOT PUSH1 0x1F DUP3 ADD AND DUP3 ADD DUP1 PUSH1 0x40 MSTORE POP DUP2 ADD SWAP1 PUSH2 0x262 SWAP2 SWAP1 PUSH2 0xE6B JUMP JUMPDEST SWAP1 POP SWAP2 SWAP1 POP JUMP JUMPDEST PUSH1 0x1 PUSH1 0x0 SWAP1 SLOAD SWAP1 PUSH2 0x100 EXP SWAP1 DIV PUSH20 0xFFFFFFFFFFFFFFFFFFFFFFFFFFFFFFFFFFFFFFFF AND DUP2 JUMP JUMPDEST PUSH1 0x0 DUP2 GT PUSH2 0x2D2 JUMPI PUSH1 0x40 MLOAD PUSH32 0x8C379A000000000000000000000000000000000000000000000000000000000 DUP2 MSTORE PUSH1 0x4 ADD PUSH2 0x2C9 SWAP1 PUSH2 0xEF5 JUMP JUMPDEST PUSH1 0x40 MLOAD DUP1 SWAP2 SUB SWAP1 REVERT JUMPDEST PUSH1 0x0 PUSH1 0x3 SLOAD DUP3 PUSH2 0x2E2 SWAP2 SWAP1 PUSH2 0xF44 JUMP JUMPDEST SWAP1 POP DUP1 PUSH1 0x2 PUSH1 0x0 SWAP1 SLOAD SWAP1 PUSH2 0x100 EXP SWAP1 DIV PUSH20 0xFFFFFFFFFFFFFFFFFFFFFFFFFFFFFFFFFFFFFFFF AND PUSH20 0xFFFFFFFFFFFFFFFFFFFFFFFFFFFFFFFFFFFFFFFF AND PUSH4 0x70A08231 ADDRESS PUSH1 0x40 MLOAD DUP3 PUSH4 0xFFFFFFFF AND PUSH1 0xE0 SHL DUP2 MSTORE PUSH1 0x4 ADD PUSH2 0x340 SWAP2 SWAP1 PUSH2 0xE3B JUMP JUMPDEST PUSH1 0x20 PUSH1 0x40 MLOAD DUP1 DUP4 SUB DUP2 DUP7 GAS STATICCALL ISZERO DUP1 ISZERO PUSH2 0x35D JUMPI RETURNDATASIZE PUSH1 0x0 DUP1 RETURNDATACOPY RETURNDATASIZE PUSH1 0x0 REVERT JUMPDEST POP POP POP POP PUSH1 0x40 MLOAD RETURNDATASIZE PUSH1 0x1F NOT PUSH1 0x1F DUP3 ADD AND DUP3 ADD DUP1 PUSH1 0x40 MSTORE POP DUP2 ADD SWAP1 PUSH2 0x381 SWAP2 SWAP1 PUSH2 0xE6B JUMP JUMPDEST LT ISZERO PUSH2 0x3C2 JUMPI PUSH1 0x40 MLOAD PUSH32 0x8C379A000000000000000000000000000000000000000000000000000000000 DUP2 MSTORE PUSH1 0x4 ADD PUSH2 0x3B9 SWAP1 PUSH2 0xFF8 JUMP JUMPDEST PUSH1 0x40 MLOAD DUP1 SWAP2 SUB SWAP1 REVERT JUMPDEST PUSH1 0x1 PUSH1 0x0 SWAP1 SLOAD SWAP1 PUSH2 0x100 EXP SWAP1 DIV PUSH20 0xFFFFFFFFFFFFFFFFFFFFFFFFFFFFFFFFFFFFFFFF AND PUSH20 0xFFFFFFFFFFFFFFFFFFFFFFFFFFFFFFFFFFFFFFFF AND PUSH4 0x95EA7B3 ADDRESS DUP5 PUSH1 0x40 MLOAD DUP4 PUSH4 0xFFFFFFFF AND PUSH1 0xE0 SHL DUP2 MSTORE PUSH1 0x4 ADD PUSH2 0x41F SWAP3 SWAP2 SWAP1 PUSH2 0x1018 JUMP JUMPDEST PUSH1 0x20 PUSH1 0x40 MLOAD DUP1 DUP4 SUB DUP2 PUSH1 0x0 DUP8 GAS CALL ISZERO DUP1 ISZERO PUSH2 0x43E JUMPI RETURNDATASIZE PUSH1 0x0 DUP1 RETURNDATACOPY RETURNDATASIZE PUSH1 0x0 REVERT JUMPDEST POP POP POP POP PUSH1 0x40 MLOAD RETURNDATASIZE PUSH1 0x1F NOT PUSH1 0x1F DUP3 ADD AND DUP3 ADD DUP1 PUSH1 0x40 MSTORE POP DUP2 ADD SWAP1 PUSH2 0x462 SWAP2 SWAP1 PUSH2 0x1079 JUMP JUMPDEST POP PUSH1 0x2 PUSH1 0x0 SWAP1 SLOAD SWAP1 PUSH2 0x100 EXP SWAP1 DIV PUSH20 0xFFFFFFFFFFFFFFFFFFFFFFFFFFFFFFFFFFFFFFFF AND PUSH20 0xFFFFFFFFFFFFFFFFFFFFFFFFFFFFFFFFFFFFFFFF AND PUSH4 0x95EA7B3 ADDRESS DUP4 PUSH1 0x40 MLOAD DUP4 PUSH4 0xFFFFFFFF AND PUSH1 0xE0 SHL DUP2 MSTORE PUSH1 0x4 ADD PUSH2 0x4C0 SWAP3 SWAP2 SWAP1 PUSH2 0x1018 JUMP JUMPDEST PUSH1 0x20 PUSH1 0x40 MLOAD DUP1 DUP4 SUB DUP2 PUSH1 0x0 DUP8 GAS CALL ISZERO DUP1 ISZERO PUSH2 0x4DF JUMPI RETURNDATASIZE PUSH1 0x0 DUP1 RETURNDATACOPY RETURNDATASIZE PUSH1 0x0 REVERT JUMPDEST POP POP POP POP PUSH1 0x40 MLOAD RETURNDATASIZE PUSH1 0x1F NOT PUSH1 0x1F DUP3 ADD AND DUP3 ADD DUP1 PUSH1 0x40 MSTORE POP DUP2 ADD SWAP1 PUSH2 0x503 SWAP2 SWAP1 PUSH2 0x1079 JUMP JUMPDEST POP PUSH2 0x532 PUSH1 0x1 PUSH1 0x0 SWAP1 SLOAD SWAP1 PUSH2 0x100 EXP SWAP1 DIV PUSH20 0xFFFFFFFFFFFFFFFFFFFFFFFFFFFFFFFFFFFFFFFF AND CALLER ADDRESS DUP6 PUSH2 0x9C6 JUMP JUMPDEST PUSH2 0x560 PUSH1 0x2 PUSH1 0x0 SWAP1 SLOAD SWAP1 PUSH2 0x100 EXP SWAP1 DIV PUSH20 0xFFFFFFFFFFFFFFFFFFFFFFFFFFFFFFFFFFFFFFFF AND ADDRESS CALLER DUP5 PUSH2 0x9C6 JUMP JUMPDEST POP POP JUMP JUMPDEST PUSH1 0x3 SLOAD DUP2 JUMP JUMPDEST PUSH1 0x2 PUSH1 0x0 SWAP1 SLOAD SWAP1 PUSH2 0x100 EXP SWAP1 DIV PUSH20 0xFFFFFFFFFFFFFFFFFFFFFFFFFFFFFFFFFFFFFFFF AND DUP2 JUMP JUMPDEST PUSH1 0x0 PUSH1 0x1 PUSH1 0x0 SWAP1 SLOAD SWAP1 PUSH2 0x100 EXP SWAP1 DIV PUSH20 0xFFFFFFFFFFFFFFFFFFFFFFFFFFFFFFFFFFFFFFFF AND PUSH20 0xFFFFFFFFFFFFFFFFFFFFFFFFFFFFFFFFFFFFFFFF AND PUSH4 0x70A08231 DUP4 PUSH1 0x40 MLOAD DUP3 PUSH4 0xFFFFFFFF AND PUSH1 0xE0 SHL DUP2 MSTORE PUSH1 0x4 ADD PUSH2 0x5ED SWAP2 SWAP1 PUSH2 0xE3B JUMP JUMPDEST PUSH1 0x20 PUSH1 0x40 MLOAD DUP1 DUP4 SUB DUP2 DUP7 GAS STATICCALL ISZERO DUP1 ISZERO PUSH2 0x60A JUMPI RETURNDATASIZE PUSH1 0x0 DUP1 RETURNDATACOPY RETURNDATASIZE PUSH1 0x0 REVERT JUMPDEST POP POP POP POP PUSH1 0x40 MLOAD RETURNDATASIZE PUSH1 0x1F NOT PUSH1 0x1F DUP3 ADD AND DUP3 ADD DUP1 PUSH1 0x40 MSTORE POP DUP2 ADD SWAP1 PUSH2 0x62E SWAP2 SWAP1 PUSH2 0xE6B JUMP JUMPDEST SWAP1 POP SWAP2 SWAP1 POP JUMP JUMPDEST PUSH1 0x0 DUP1 SLOAD SWAP1 PUSH2 0x100 EXP SWAP1 DIV PUSH20 0xFFFFFFFFFFFFFFFFFFFFFFFFFFFFFFFFFFFFFFFF AND DUP2 JUMP JUMPDEST PUSH1 0x0 DUP1 SLOAD SWAP1 PUSH2 0x100 EXP SWAP1 DIV PUSH20 0xFFFFFFFFFFFFFFFFFFFFFFFFFFFFFFFFFFFFFFFF AND PUSH20 0xFFFFFFFFFFFFFFFFFFFFFFFFFFFFFFFFFFFFFFFF AND CALLER PUSH20 0xFFFFFFFFFFFFFFFFFFFFFFFFFFFFFFFFFFFFFFFF AND EQ PUSH2 0x6E7 JUMPI PUSH1 0x40 MLOAD PUSH32 0x8C379A000000000000000000000000000000000000000000000000000000000 DUP2 MSTORE PUSH1 0x4 ADD PUSH2 0x6DE SWAP1 PUSH2 0x1118 JUMP JUMPDEST PUSH1 0x40 MLOAD DUP1 SWAP2 SUB SWAP1 REVERT JUMPDEST DUP1 PUSH1 0x3 DUP2 SWAP1 SSTORE POP POP JUMP JUMPDEST PUSH1 0x0 DUP2 GT PUSH2 0x734 JUMPI PUSH1 0x40 MLOAD PUSH32 0x8C379A000000000000000000000000000000000000000000000000000000000 DUP2 MSTORE PUSH1 0x4 ADD PUSH2 0x72B SWAP1 PUSH2 0xEF5 JUMP JUMPDEST PUSH1 0x40 MLOAD DUP1 SWAP2 SUB SWAP1 REVERT JUMPDEST PUSH1 0x0 PUSH1 0x3 SLOAD DUP3 PUSH2 0x744 SWAP2 SWAP1 PUSH2 0x1167 JUMP JUMPDEST SWAP1 POP DUP1 PUSH1 0x1 PUSH1 0x0 SWAP1 SLOAD SWAP1 PUSH2 0x100 EXP SWAP1 DIV PUSH20 0xFFFFFFFFFFFFFFFFFFFFFFFFFFFFFFFFFFFFFFFF AND PUSH20 0xFFFFFFFFFFFFFFFFFFFFFFFFFFFFFFFFFFFFFFFF AND PUSH4 0x70A08231 ADDRESS PUSH1 0x40 MLOAD DUP3 PUSH4 0xFFFFFFFF AND PUSH1 0xE0 SHL DUP2 MSTORE PUSH1 0x4 ADD PUSH2 0x7A2 SWAP2 SWAP1 PUSH2 0xE3B JUMP JUMPDEST PUSH1 0x20 PUSH1 0x40 MLOAD DUP1 DUP4 SUB DUP2 DUP7 GAS STATICCALL ISZERO DUP1 ISZERO PUSH2 0x7BF JUMPI RETURNDATASIZE PUSH1 0x0 DUP1 RETURNDATACOPY RETURNDATASIZE PUSH1 0x0 REVERT JUMPDEST POP POP POP POP PUSH1 0x40 MLOAD RETURNDATASIZE PUSH1 0x1F NOT PUSH1 0x1F DUP3 ADD AND DUP3 ADD DUP1 PUSH1 0x40 MSTORE POP DUP2 ADD SWAP1 PUSH2 0x7E3 SWAP2 SWAP1 PUSH2 0xE6B JUMP JUMPDEST LT ISZERO PUSH2 0x824 JUMPI PUSH1 0x40 MLOAD PUSH32 0x8C379A000000000000000000000000000000000000000000000000000000000 DUP2 MSTORE PUSH1 0x4 ADD PUSH2 0x81B SWAP1 PUSH2 0x120A JUMP JUMPDEST PUSH1 0x40 MLOAD DUP1 SWAP2 SUB SWAP1 REVERT JUMPDEST PUSH1 0x1 PUSH1 0x0 SWAP1 SLOAD SWAP1 PUSH2 0x100 EXP SWAP1 DIV PUSH20 0xFFFFFFFFFFFFFFFFFFFFFFFFFFFFFFFFFFFFFFFF AND PUSH20 0xFFFFFFFFFFFFFFFFFFFFFFFFFFFFFFFFFFFFFFFF AND PUSH4 0x95EA7B3 ADDRESS DUP4 PUSH1 0x40 MLOAD DUP4 PUSH4 0xFFFFFFFF AND PUSH1 0xE0 SHL DUP2 MSTORE PUSH1 0x4 ADD PUSH2 0x881 SWAP3 SWAP2 SWAP1 PUSH2 0x1018 JUMP JUMPDEST PUSH1 0x20 PUSH1 0x40 MLOAD DUP1 DUP4 SUB DUP2 PUSH1 0x0 DUP8 GAS CALL ISZERO DUP1 ISZERO PUSH2 0x8A0 JUMPI RETURNDATASIZE PUSH1 0x0 DUP1 RETURNDATACOPY RETURNDATASIZE PUSH1 0x0 REVERT JUMPDEST POP POP POP POP PUSH1 0x40 MLOAD RETURNDATASIZE PUSH1 0x1F NOT PUSH1 0x1F DUP3 ADD AND DUP3 ADD DUP1 PUSH1 0x40 MSTORE POP DUP2 ADD SWAP1 PUSH2 0x8C4 SWAP2 SWAP1 PUSH2 0x1079 JUMP JUMPDEST POP PUSH1 0x2 PUSH1 0x0 SWAP1 SLOAD SWAP1 PUSH2 0x100 EXP SWAP1 DIV PUSH20 0xFFFFFFFFFFFFFFFFFFFFFFFFFFFFFFFFFFFFFFFF AND PUSH20 0xFFFFFFFFFFFFFFFFFFFFFFFFFFFFFFFFFFFFFFFF AND PUSH4 0x95EA7B3 ADDRESS DUP5 PUSH1 0x40 MLOAD DUP4 PUSH4 0xFFFFFFFF AND PUSH1 0xE0 SHL DUP2 MSTORE PUSH1 0x4 ADD PUSH2 0x922 SWAP3 SWAP2 SWAP1 PUSH2 0x1018 JUMP JUMPDEST PUSH1 0x20 PUSH1 0x40 MLOAD DUP1 DUP4 SUB DUP2 PUSH1 0x0 DUP8 GAS CALL ISZERO DUP1 ISZERO PUSH2 0x941 JUMPI RETURNDATASIZE PUSH1 0x0 DUP1 RETURNDATACOPY RETURNDATASIZE PUSH1 0x0 REVERT JUMPDEST POP POP POP POP PUSH1 0x40 MLOAD RETURNDATASIZE PUSH1 0x1F NOT PUSH1 0x1F DUP3 ADD AND DUP3 ADD DUP1 PUSH1 0x40 MSTORE POP DUP2 ADD SWAP1 PUSH2 0x965 SWAP2 SWAP1 PUSH2 0x1079 JUMP JUMPDEST POP PUSH2 0x994 PUSH1 0x2 PUSH1 0x0 SWAP1 SLOAD SWAP1 PUSH2 0x100 EXP SWAP1 DIV PUSH20 0xFFFFFFFFFFFFFFFFFFFFFFFFFFFFFFFFFFFFFFFF AND CALLER ADDRESS DUP6 PUSH2 0x9C6 JUMP JUMPDEST PUSH2 0x9C2 PUSH1 0x1 PUSH1 0x0 SWAP1 SLOAD SWAP1 PUSH2 0x100 EXP SWAP1 DIV PUSH20 0xFFFFFFFFFFFFFFFFFFFFFFFFFFFFFFFFFFFFFFFF AND ADDRESS CALLER DUP5 PUSH2 0x9C6 JUMP JUMPDEST POP POP JUMP JUMPDEST PUSH1 0x0 DUP5 PUSH20 0xFFFFFFFFFFFFFFFFFFFFFFFFFFFFFFFFFFFFFFFF AND PUSH4 0x70A08231 DUP5 PUSH1 0x40 MLOAD DUP3 PUSH4 0xFFFFFFFF AND PUSH1 0xE0 SHL DUP2 MSTORE PUSH1 0x4 ADD PUSH2 0xA01 SWAP2 SWAP1 PUSH2 0xE3B JUMP JUMPDEST PUSH1 0x20 PUSH1 0x40 MLOAD DUP1 DUP4 SUB DUP2 DUP7 GAS STATICCALL ISZERO DUP1 ISZERO PUSH2 0xA1E JUMPI RETURNDATASIZE PUSH1 0x0 DUP1 RETURNDATACOPY RETURNDATASIZE PUSH1 0x0 REVERT JUMPDEST POP POP POP POP PUSH1 0x40 MLOAD RETURNDATASIZE PUSH1 0x1F NOT PUSH1 0x1F DUP3 ADD AND DUP3 ADD DUP1 PUSH1 0x40 MSTORE POP DUP2 ADD SWAP1 PUSH2 0xA42 SWAP2 SWAP1 PUSH2 0xE6B JUMP JUMPDEST SWAP1 POP PUSH1 0x0 ADDRESS PUSH20 0xFFFFFFFFFFFFFFFFFFFFFFFFFFFFFFFFFFFFFFFF AND DUP6 PUSH20 0xFFFFFFFFFFFFFFFFFFFFFFFFFFFFFFFFFFFFFFFF AND SUB PUSH2 0xAFE JUMPI DUP6 PUSH20 0xFFFFFFFFFFFFFFFFFFFFFFFFFFFFFFFFFFFFFFFF AND PUSH4 0xA9059CBB DUP6 DUP6 PUSH1 0x40 MLOAD DUP4 PUSH4 0xFFFFFFFF AND PUSH1 0xE0 SHL DUP2 MSTORE PUSH1 0x4 ADD PUSH2 0xAB4 SWAP3 SWAP2 SWAP1 PUSH2 0x1018 JUMP JUMPDEST PUSH1 0x20 PUSH1 0x40 MLOAD DUP1 DUP4 SUB DUP2 PUSH1 0x0 DUP8 GAS CALL ISZERO DUP1 ISZERO PUSH2 0xAD3 JUMPI RETURNDATASIZE PUSH1 0x0 DUP1 RETURNDATACOPY RETURNDATASIZE PUSH1 0x0 REVERT JUMPDEST POP POP POP POP PUSH1 0x40 MLOAD RETURNDATASIZE PUSH1 0x1F NOT PUSH1 0x1F DUP3 ADD AND DUP3 ADD DUP1 PUSH1 0x40 MSTORE POP DUP2 ADD SWAP1 PUSH2 0xAF7 SWAP2 SWAP1 PUSH2 0x1079 JUMP JUMPDEST SWAP1 POP PUSH2 0xB81 JUMP JUMPDEST DUP6 PUSH20 0xFFFFFFFFFFFFFFFFFFFFFFFFFFFFFFFFFFFFFFFF AND PUSH4 0x23B872DD DUP7 DUP7 DUP7 PUSH1 0x40 MLOAD DUP5 PUSH4 0xFFFFFFFF AND PUSH1 0xE0 SHL DUP2 MSTORE PUSH1 0x4 ADD PUSH2 0xB3B SWAP4 SWAP3 SWAP2 SWAP1 PUSH2 0x122A JUMP JUMPDEST PUSH1 0x20 PUSH1 0x40 MLOAD DUP1 DUP4 SUB DUP2 PUSH1 0x0 DUP8 GAS CALL ISZERO DUP1 ISZERO PUSH2 0xB5A JUMPI RETURNDATASIZE PUSH1 0x0 DUP1 RETURNDATACOPY RETURNDATASIZE PUSH1 0x0 REVERT JUMPDEST POP POP POP POP PUSH1 0x40 MLOAD RETURNDATASIZE PUSH1 0x1F NOT PUSH1 0x1F DUP3 ADD AND DUP3 ADD DUP1 PUSH1 0x40 MSTORE POP DUP2 ADD SWAP1 PUSH2 0xB7E SWAP2 SWAP1 PUSH2 0x1079 JUMP JUMPDEST SWAP1 POP JUMPDEST DUP1 PUSH2 0xBC1 JUMPI PUSH1 0x40 MLOAD PUSH32 0x8C379A000000000000000000000000000000000000000000000000000000000 DUP2 MSTORE PUSH1 0x4 ADD PUSH2 0xBB8 SWAP1 PUSH2 0x12AD JUMP JUMPDEST PUSH1 0x40 MLOAD DUP1 SWAP2 SUB SWAP1 REVERT JUMPDEST PUSH1 0x0 DUP7 PUSH20 0xFFFFFFFFFFFFFFFFFFFFFFFFFFFFFFFFFFFFFFFF AND PUSH4 0x70A08231 DUP7 PUSH1 0x40 MLOAD DUP3 PUSH4 0xFFFFFFFF AND PUSH1 0xE0 SHL DUP2 MSTORE PUSH1 0x4 ADD PUSH2 0xBFC SWAP2 SWAP1 PUSH2 0xE3B JUMP JUMPDEST PUSH1 0x20 PUSH1 0x40 MLOAD DUP1 DUP4 SUB DUP2 DUP7 GAS STATICCALL ISZERO DUP1 ISZERO PUSH2 0xC19 JUMPI RETURNDATASIZE PUSH1 0x0 DUP1 RETURNDATACOPY RETURNDATASIZE PUSH1 0x0 REVERT JUMPDEST POP POP POP POP PUSH1 0x40 MLOAD RETURNDATASIZE PUSH1 0x1F NOT PUSH1 0x1F DUP3 ADD AND DUP3 ADD DUP1 PUSH1 0x40 MSTORE POP DUP2 ADD SWAP1 PUSH2 0xC3D SWAP2 SWAP1 PUSH2 0xE6B JUMP JUMPDEST SWAP1 POP DUP4 DUP4 DUP3 PUSH2 0xC4C SWAP2 SWAP1 PUSH2 0x12CD JUMP JUMPDEST EQ PUSH2 0xC8C JUMPI PUSH1 0x40 MLOAD PUSH32 0x8C379A000000000000000000000000000000000000000000000000000000000 DUP2 MSTORE PUSH1 0x4 ADD PUSH2 0xC83 SWAP1 PUSH2 0x134D JUMP JUMPDEST PUSH1 0x40 MLOAD DUP1 SWAP2 SUB SWAP1 REVERT JUMPDEST POP POP POP POP POP POP POP JUMP JUMPDEST PUSH1 0x0 DUP1 REVERT JUMPDEST PUSH1 0x0 PUSH20 0xFFFFFFFFFFFFFFFFFFFFFFFFFFFFFFFFFFFFFFFF DUP3 AND SWAP1 POP SWAP2 SWAP1 POP JUMP JUMPDEST PUSH1 0x0 PUSH2 0xCC5 DUP3 PUSH2 0xC9A JUMP JUMPDEST SWAP1 POP SWAP2 SWAP1 POP JUMP JUMPDEST PUSH2 0xCD5 DUP2 PUSH2 0xCBA JUMP JUMPDEST DUP2 EQ PUSH2 0xCE0 JUMPI PUSH1 0x0 DUP1 REVERT JUMPDEST POP JUMP JUMPDEST PUSH1 0x0 DUP2 CALLDATALOAD SWAP1 POP PUSH2 0xCF2 DUP2 PUSH2 0xCCC JUMP JUMPDEST SWAP3 SWAP2 POP POP JUMP JUMPDEST PUSH1 0x0 PUSH1 0x20 DUP3 DUP5 SUB SLT ISZERO PUSH2 0xD0E JUMPI PUSH2 0xD0D PUSH2 0xC95 JUMP JUMPDEST JUMPDEST PUSH1 0x0 PUSH2 0xD1C DUP5 DUP3 DUP6 ADD PUSH2 0xCE3 JUMP JUMPDEST SWAP2 POP POP SWAP3 SWAP2 POP POP JUMP JUMPDEST PUSH1 0x0 DUP2 SWAP1 POP SWAP2 SWAP1 POP JUMP JUMPDEST PUSH2 0xD38 DUP2 PUSH2 0xD25 JUMP JUMPDEST DUP3 MSTORE POP POP JUMP JUMPDEST PUSH1 0x0 PUSH1 0x20 DUP3 ADD SWAP1 POP PUSH2 0xD53 PUSH1 0x0 DUP4 ADD DUP5 PUSH2 0xD2F JUMP JUMPDEST SWAP3 SWAP2 POP POP JUMP JUMPDEST PUSH1 0x0 DUP2 SWAP1 POP SWAP2 SWAP1 POP JUMP JUMPDEST PUSH1 0x0 PUSH2 0xD7E PUSH2 0xD79 PUSH2 0xD74 DUP5 PUSH2 0xC9A JUMP JUMPDEST PUSH2 0xD59 JUMP JUMPDEST PUSH2 0xC9A JUMP JUMPDEST SWAP1 POP SWAP2 SWAP1 POP JUMP JUMPDEST PUSH1 0x0 PUSH2 0xD90 DUP3 PUSH2 0xD63 JUMP JUMPDEST SWAP1 POP SWAP2 SWAP1 POP JUMP JUMPDEST PUSH1 0x0 PUSH2 0xDA2 DUP3 PUSH2 0xD85 JUMP JUMPDEST SWAP1 POP SWAP2 SWAP1 POP JUMP JUMPDEST PUSH2 0xDB2 DUP2 PUSH2 0xD97 JUMP JUMPDEST DUP3 MSTORE POP POP JUMP JUMPDEST PUSH1 0x0 PUSH1 0x20 DUP3 ADD SWAP1 POP PUSH2 0xDCD PUSH1 0x0 DUP4 ADD DUP5 PUSH2 0xDA9 JUMP JUMPDEST SWAP3 SWAP2 POP POP JUMP JUMPDEST PUSH2 0xDDC DUP2 PUSH2 0xD25 JUMP JUMPDEST DUP2 EQ PUSH2 0xDE7 JUMPI PUSH1 0x0 DUP1 REVERT JUMPDEST POP JUMP JUMPDEST PUSH1 0x0 DUP2 CALLDATALOAD SWAP1 POP PUSH2 0xDF9 DUP2 PUSH2 0xDD3 JUMP JUMPDEST SWAP3 SWAP2 POP POP JUMP JUMPDEST PUSH1 0x0 PUSH1 0x20 DUP3 DUP5 SUB SLT ISZERO PUSH2 0xE15 JUMPI PUSH2 0xE14 PUSH2 0xC95 JUMP JUMPDEST JUMPDEST PUSH1 0x0 PUSH2 0xE23 DUP5 DUP3 DUP6 ADD PUSH2 0xDEA JUMP JUMPDEST SWAP2 POP POP SWAP3 SWAP2 POP POP JUMP JUMPDEST PUSH2 0xE35 DUP2 PUSH2 0xCBA JUMP JUMPDEST DUP3 MSTORE POP POP JUMP JUMPDEST PUSH1 0x0 PUSH1 0x20 DUP3 ADD SWAP1 POP PUSH2 0xE50 PUSH1 0x0 DUP4 ADD DUP5 PUSH2 0xE2C JUMP JUMPDEST SWAP3 SWAP2 POP POP JUMP JUMPDEST PUSH1 0x0 DUP2 MLOAD SWAP1 POP PUSH2 0xE65 DUP2 PUSH2 0xDD3 JUMP JUMPDEST SWAP3 SWAP2 POP POP JUMP JUMPDEST PUSH1 0x0 PUSH1 0x20 DUP3 DUP5 SUB SLT ISZERO PUSH2 0xE81 JUMPI PUSH2 0xE80 PUSH2 0xC95 JUMP JUMPDEST JUMPDEST PUSH1 0x0 PUSH2 0xE8F DUP5 DUP3 DUP6 ADD PUSH2 0xE56 JUMP JUMPDEST SWAP2 POP POP SWAP3 SWAP2 POP POP JUMP JUMPDEST PUSH1 0x0 DUP3 DUP3 MSTORE PUSH1 0x20 DUP3 ADD SWAP1 POP SWAP3 SWAP2 POP POP JUMP JUMPDEST PUSH32 0x416D6F756E74206D7573742062652067726561746572207468616E207A65726F PUSH1 0x0 DUP3 ADD MSTORE POP JUMP JUMPDEST PUSH1 0x0 PUSH2 0xEDF PUSH1 0x20 DUP4 PUSH2 0xE98 JUMP JUMPDEST SWAP2 POP PUSH2 0xEEA DUP3 PUSH2 0xEA9 JUMP JUMPDEST PUSH1 0x20 DUP3 ADD SWAP1 POP SWAP2 SWAP1 POP JUMP JUMPDEST PUSH1 0x0 PUSH1 0x20 DUP3 ADD SWAP1 POP DUP2 DUP2 SUB PUSH1 0x0 DUP4 ADD MSTORE PUSH2 0xF0E DUP2 PUSH2 0xED2 JUMP JUMPDEST SWAP1 POP SWAP2 SWAP1 POP JUMP JUMPDEST PUSH32 0x4E487B7100000000000000000000000000000000000000000000000000000000 PUSH1 0x0 MSTORE PUSH1 0x11 PUSH1 0x4 MSTORE PUSH1 0x24 PUSH1 0x0 REVERT JUMPDEST PUSH1 0x0 PUSH2 0xF4F DUP3 PUSH2 0xD25 JUMP JUMPDEST SWAP2 POP PUSH2 0xF5A DUP4 PUSH2 0xD25 JUMP JUMPDEST SWAP3 POP DUP3 DUP3 MUL PUSH2 0xF68 DUP2 PUSH2 0xD25 JUMP JUMPDEST SWAP2 POP DUP3 DUP3 DIV DUP5 EQ DUP4 ISZERO OR PUSH2 0xF7F JUMPI PUSH2 0xF7E PUSH2 0xF15 JUMP JUMPDEST JUMPDEST POP SWAP3 SWAP2 POP POP JUMP JUMPDEST PUSH32 0x4E6F7420656E6F75676820746F6B656E42206C697175696469747920696E2063 PUSH1 0x0 DUP3 ADD MSTORE PUSH32 0x6F6E747261637400000000000000000000000000000000000000000000000000 PUSH1 0x20 DUP3 ADD MSTORE POP JUMP JUMPDEST PUSH1 0x0 PUSH2 0xFE2 PUSH1 0x27 DUP4 PUSH2 0xE98 JUMP JUMPDEST SWAP2 POP PUSH2 0xFED DUP3 PUSH2 0xF86 JUMP JUMPDEST PUSH1 0x40 DUP3 ADD SWAP1 POP SWAP2 SWAP1 POP JUMP JUMPDEST PUSH1 0x0 PUSH1 0x20 DUP3 ADD SWAP1 POP DUP2 DUP2 SUB PUSH1 0x0 DUP4 ADD MSTORE PUSH2 0x1011 DUP2 PUSH2 0xFD5 JUMP JUMPDEST SWAP1 POP SWAP2 SWAP1 POP JUMP JUMPDEST PUSH1 0x0 PUSH1 0x40 DUP3 ADD SWAP1 POP PUSH2 0x102D PUSH1 0x0 DUP4 ADD DUP6 PUSH2 0xE2C JUMP JUMPDEST PUSH2 0x103A PUSH1 0x20 DUP4 ADD DUP5 PUSH2 0xD2F JUMP JUMPDEST SWAP4 SWAP3 POP POP POP JUMP JUMPDEST PUSH1 0x0 DUP2 ISZERO ISZERO SWAP1 POP SWAP2 SWAP1 POP JUMP JUMPDEST PUSH2 0x1056 DUP2 PUSH2 0x1041 JUMP JUMPDEST DUP2 EQ PUSH2 0x1061 JUMPI PUSH1 0x0 DUP1 REVERT JUMPDEST POP JUMP JUMPDEST PUSH1 0x0 DUP2 MLOAD SWAP1 POP PUSH2 0x1073 DUP2 PUSH2 0x104D JUMP JUMPDEST SWAP3 SWAP2 POP POP JUMP JUMPDEST PUSH1 0x0 PUSH1 0x20 DUP3 DUP5 SUB SLT ISZERO PUSH2 0x108F JUMPI PUSH2 0x108E PUSH2 0xC95 JUMP JUMPDEST JUMPDEST PUSH1 0x0 PUSH2 0x109D DUP5 DUP3 DUP6 ADD PUSH2 0x1064 JUMP JUMPDEST SWAP2 POP POP SWAP3 SWAP2 POP POP JUMP JUMPDEST PUSH32 0x4F6E6C79206F776E65722063616E2063616C6C20746869732066756E6374696F PUSH1 0x0 DUP3 ADD MSTORE PUSH32 0x6E00000000000000000000000000000000000000000000000000000000000000 PUSH1 0x20 DUP3 ADD MSTORE POP JUMP JUMPDEST PUSH1 0x0 PUSH2 0x1102 PUSH1 0x21 DUP4 PUSH2 0xE98 JUMP JUMPDEST SWAP2 POP PUSH2 0x110D DUP3 PUSH2 0x10A6 JUMP JUMPDEST PUSH1 0x40 DUP3 ADD SWAP1 POP SWAP2 SWAP1 POP JUMP JUMPDEST PUSH1 0x0 PUSH1 0x20 DUP3 ADD SWAP1 POP DUP2 DUP2 SUB PUSH1 0x0 DUP4 ADD MSTORE PUSH2 0x1131 DUP2 PUSH2 0x10F5 JUMP JUMPDEST SWAP1 POP SWAP2 SWAP1 POP JUMP JUMPDEST PUSH32 0x4E487B7100000000000000000000000000000000000000000000000000000000 PUSH1 0x0 MSTORE PUSH1 0x12 PUSH1 0x4 MSTORE PUSH1 0x24 PUSH1 0x0 REVERT JUMPDEST PUSH1 0x0 PUSH2 0x1172 DUP3 PUSH2 0xD25 JUMP JUMPDEST SWAP2 POP PUSH2 0x117D DUP4 PUSH2 0xD25 JUMP JUMPDEST SWAP3 POP DUP3 PUSH2 0x118D JUMPI PUSH2 0x118C PUSH2 0x1138 JUMP JUMPDEST JUMPDEST DUP3 DUP3 DIV SWAP1 POP SWAP3 SWAP2 POP POP JUMP JUMPDEST PUSH32 0x4E6F7420656E6F75676820746F6B656E41206C697175696469747920696E2063 PUSH1 0x0 DUP3 ADD MSTORE PUSH32 0x6F6E747261637400000000000000000000000000000000000000000000000000 PUSH1 0x20 DUP3 ADD MSTORE POP JUMP JUMPDEST PUSH1 0x0 PUSH2 0x11F4 PUSH1 0x27 DUP4 PUSH2 0xE98 JUMP JUMPDEST SWAP2 POP PUSH2 0x11FF DUP3 PUSH2 0x1198 JUMP JUMPDEST PUSH1 0x40 DUP3 ADD SWAP1 POP SWAP2 SWAP1 POP JUMP JUMPDEST PUSH1 0x0 PUSH1 0x20 DUP3 ADD SWAP1 POP DUP2 DUP2 SUB PUSH1 0x0 DUP4 ADD MSTORE PUSH2 0x1223 DUP2 PUSH2 0x11E7 JUMP JUMPDEST SWAP1 POP SWAP2 SWAP1 POP JUMP JUMPDEST PUSH1 0x0 PUSH1 0x60 DUP3 ADD SWAP1 POP PUSH2 0x123F PUSH1 0x0 DUP4 ADD DUP7 PUSH2 0xE2C JUMP JUMPDEST PUSH2 0x124C PUSH1 0x20 DUP4 ADD DUP6 PUSH2 0xE2C JUMP JUMPDEST PUSH2 0x1259 PUSH1 0x40 DUP4 ADD DUP5 PUSH2 0xD2F JUMP JUMPDEST SWAP5 SWAP4 POP POP POP POP JUMP JUMPDEST PUSH32 0x546F6B656E207472616E73666572206661696C65640000000000000000000000 PUSH1 0x0 DUP3 ADD MSTORE POP JUMP JUMPDEST PUSH1 0x0 PUSH2 0x1297 PUSH1 0x15 DUP4 PUSH2 0xE98 JUMP JUMPDEST SWAP2 POP PUSH2 0x12A2 DUP3 PUSH2 0x1261 JUMP JUMPDEST PUSH1 0x20 DUP3 ADD SWAP1 POP SWAP2 SWAP1 POP JUMP JUMPDEST PUSH1 0x0 PUSH1 0x20 DUP3 ADD SWAP1 POP DUP2 DUP2 SUB PUSH1 0x0 DUP4 ADD MSTORE PUSH2 0x12C6 DUP2 PUSH2 0x128A JUMP JUMPDEST SWAP1 POP SWAP2 SWAP1 POP JUMP JUMPDEST PUSH1 0x0 PUSH2 0x12D8 DUP3 PUSH2 0xD25 JUMP JUMPDEST SWAP2 POP PUSH2 0x12E3 DUP4 PUSH2 0xD25 JUMP JUMPDEST SWAP3 POP DUP3 DUP3 SUB SWAP1 POP DUP2 DUP2 GT ISZERO PUSH2 0x12FB JUMPI PUSH2 0x12FA PUSH2 0xF15 JUMP JUMPDEST JUMPDEST SWAP3 SWAP2 POP POP JUMP JUMPDEST PUSH32 0x546F6B656E207472616E7366657220616D6F756E74206D69736D617463680000 PUSH1 0x0 DUP3 ADD MSTORE POP JUMP JUMPDEST PUSH1 0x0 PUSH2 0x1337 PUSH1 0x1E DUP4 PUSH2 0xE98 JUMP JUMPDEST SWAP2 POP PUSH2 0x1342 DUP3 PUSH2 0x1301 JUMP JUMPDEST PUSH1 0x20 DUP3 ADD SWAP1 POP SWAP2 SWAP1 POP JUMP JUMPDEST PUSH1 0x0 PUSH1 0x20 DUP3 ADD SWAP1 POP DUP2 DUP2 SUB PUSH1 0x0 DUP4 ADD MSTORE PUSH2 0x1366 DUP2 PUSH2 0x132A JUMP JUMPDEST SWAP1 POP SWAP2 SWAP1 POP JUMP INVALID LOG2 PUSH5 0x6970667358 0x22 SLT KECCAK256 0x22 COINBASE PUSH15 0xBA341B35A3DB09361F7455B525CA0C SWAP11 JUMPDEST 0xE6 0xAC SWAP16 0xEC 0xF8 SWAP12 0xCF EXTCODESIZE DIFFICULTY SWAP4 SLT 0xA6 PUSH5 0x736F6C6343 STOP ADDMOD EQ STOP CALLER "
				},
				"gasEstimates": {
					"creation": {
						"codeDepositCost": "1005400",
						"executionCost": "infinite",
						"totalCost": "infinite"
					},
					"external": {
						"balanceOfTokenA(address)": "infinite",
						"balanceOfTokenB(address)": "infinite",
						"exchangeRate()": "2496",
						"exchangeTokenAForTokenB(uint256)": "infinite",
						"exchangeTokenBForTokenA(uint256)": "infinite",
						"owner()": "2555",
						"setExchangeRate(uint256)": "24753",
						"tokenA()": "infinite",
						"tokenB()": "infinite"
					},
					"internal": {
						"_transferTokens(contract IERC20,address,address,uint256)": "infinite"
					}
				},
				"methodIdentifiers": {
					"balanceOfTokenA(address)": "78e06cc1",
					"balanceOfTokenB(address)": "0815cd6b",
					"exchangeRate()": "3ba0b9a9",
					"exchangeTokenAForTokenB(uint256)": "3494b099",
					"exchangeTokenBForTokenA(uint256)": "e4b80048",
					"owner()": "8da5cb5b",
					"setExchangeRate(uint256)": "db068e0e",
					"tokenA()": "0fc63d10",
					"tokenB()": "5f64b55b"
				}
			},
			"storageLayout": {
				"storage": [
					{
						"astId": 54,
						"contract": "contracts/SimpleDEX.sol:SimpleDEX",
						"label": "owner",
						"offset": 0,
						"slot": "0",
						"type": "t_address"
					},
					{
						"astId": 57,
						"contract": "contracts/SimpleDEX.sol:SimpleDEX",
						"label": "tokenA",
						"offset": 0,
						"slot": "1",
						"type": "t_contract(IERC20)52"
					},
					{
						"astId": 60,
						"contract": "contracts/SimpleDEX.sol:SimpleDEX",
						"label": "tokenB",
						"offset": 0,
						"slot": "2",
						"type": "t_contract(IERC20)52"
					},
					{
						"astId": 62,
						"contract": "contracts/SimpleDEX.sol:SimpleDEX",
						"label": "exchangeRate",
						"offset": 0,
						"slot": "3",
						"type": "t_uint256"
					}
				],
				"types": {
					"t_address": {
						"encoding": "inplace",
						"label": "address",
						"numberOfBytes": "20"
					},
					"t_contract(IERC20)52": {
						"encoding": "inplace",
						"label": "contract IERC20",
						"numberOfBytes": "20"
					},
					"t_uint256": {
						"encoding": "inplace",
						"label": "uint256",
						"numberOfBytes": "32"
					}
				}
			},
			"userdoc": {
				"kind": "user",
				"methods": {},
				"version": 1
			}
		}
	}
}